{
  "_format": "hh-sol-artifact-1",
  "contractName": "NFTMarketplace",
  "sourceName": "contracts/NFTMarketplace.sol",
  "abi": [
    {
      "inputs": [],
      "stateMutability": "nonpayable",
      "type": "constructor"
    },
    {
      "anonymous": false,
      "inputs": [
        {
          "indexed": true,
          "internalType": "address",
          "name": "owner",
          "type": "address"
        },
        {
          "indexed": true,
          "internalType": "address",
          "name": "approved",
          "type": "address"
        },
        {
          "indexed": true,
          "internalType": "uint256",
          "name": "tokenId",
          "type": "uint256"
        }
      ],
      "name": "Approval",
      "type": "event"
    },
    {
      "anonymous": false,
      "inputs": [
        {
          "indexed": true,
          "internalType": "address",
          "name": "owner",
          "type": "address"
        },
        {
          "indexed": true,
          "internalType": "address",
          "name": "operator",
          "type": "address"
        },
        {
          "indexed": false,
          "internalType": "bool",
          "name": "approved",
          "type": "bool"
        }
      ],
      "name": "ApprovalForAll",
      "type": "event"
    },
    {
      "anonymous": false,
      "inputs": [
        {
          "indexed": false,
          "internalType": "uint256",
          "name": "_fromTokenId",
          "type": "uint256"
        },
        {
          "indexed": false,
          "internalType": "uint256",
          "name": "_toTokenId",
          "type": "uint256"
        }
      ],
      "name": "BatchMetadataUpdate",
      "type": "event"
    },
    {
      "anonymous": false,
      "inputs": [
        {
          "indexed": false,
          "internalType": "string",
          "name": "name",
          "type": "string"
        },
        {
          "indexed": false,
          "internalType": "string",
          "name": "message",
          "type": "string"
        },
        {
          "indexed": false,
          "internalType": "uint256",
          "name": "timestamp",
          "type": "uint256"
        },
        {
          "indexed": false,
          "internalType": "address",
          "name": "buyer",
          "type": "address"
        },
        {
          "indexed": false,
          "internalType": "uint256",
          "name": "amount",
          "type": "uint256"
        }
      ],
      "name": "ChaiBought",
      "type": "event"
    },
    {
      "anonymous": false,
      "inputs": [
        {
          "indexed": true,
          "internalType": "address",
          "name": "from",
          "type": "address"
        },
        {
          "indexed": false,
          "internalType": "string",
          "name": "name",
          "type": "string"
        },
        {
          "indexed": false,
          "internalType": "string",
          "name": "message",
          "type": "string"
        },
        {
          "indexed": false,
          "internalType": "uint256",
          "name": "timestamp",
          "type": "uint256"
        },
        {
          "indexed": false,
          "internalType": "uint256",
          "name": "amount",
          "type": "uint256"
        }
      ],
      "name": "Donation",
      "type": "event"
    },
    {
      "anonymous": false,
      "inputs": [
        {
          "indexed": false,
          "internalType": "uint256",
          "name": "newPrice",
          "type": "uint256"
        }
      ],
      "name": "ListingPriceUpdated",
      "type": "event"
    },
    {
      "anonymous": false,
      "inputs": [
        {
          "indexed": true,
          "internalType": "uint256",
          "name": "tokenId",
          "type": "uint256"
        },
        {
          "indexed": false,
          "internalType": "address",
          "name": "seller",
          "type": "address"
        },
        {
          "indexed": false,
          "internalType": "address",
          "name": "owner",
          "type": "address"
        },
        {
          "indexed": false,
          "internalType": "uint256",
          "name": "price",
          "type": "uint256"
        },
        {
          "indexed": false,
          "internalType": "bool",
          "name": "sold",
          "type": "bool"
        }
      ],
      "name": "MarketItemCreated",
      "type": "event"
    },
    {
      "anonymous": false,
      "inputs": [
        {
          "indexed": true,
          "internalType": "uint256",
          "name": "tokenId",
          "type": "uint256"
        },
        {
          "indexed": false,
          "internalType": "address",
          "name": "buyer",
          "type": "address"
        },
        {
          "indexed": false,
          "internalType": "address",
          "name": "seller",
          "type": "address"
        },
        {
          "indexed": false,
          "internalType": "uint256",
          "name": "price",
          "type": "uint256"
        }
      ],
      "name": "MarketSale",
      "type": "event"
    },
    {
      "anonymous": false,
      "inputs": [
        {
          "indexed": false,
          "internalType": "uint256",
          "name": "_tokenId",
          "type": "uint256"
        }
      ],
      "name": "MetadataUpdate",
      "type": "event"
    },
    {
      "anonymous": false,
      "inputs": [
        {
          "indexed": false,
          "internalType": "string",
          "name": "tokenURI",
          "type": "string"
        },
        {
          "indexed": false,
          "internalType": "uint256",
          "name": "price",
          "type": "uint256"
        },
        {
          "indexed": false,
          "internalType": "uint256",
          "name": "newTokenId",
          "type": "uint256"
        }
      ],
      "name": "TokenItem",
      "type": "event"
    },
    {
      "anonymous": false,
      "inputs": [
        {
          "indexed": true,
          "internalType": "uint256",
          "name": "tokenId",
          "type": "uint256"
        },
        {
          "indexed": false,
          "internalType": "address",
          "name": "seller",
          "type": "address"
        },
        {
          "indexed": false,
          "internalType": "address",
          "name": "owner",
          "type": "address"
        },
        {
          "indexed": false,
          "internalType": "uint256",
          "name": "price",
          "type": "uint256"
        }
      ],
      "name": "TokenResold",
      "type": "event"
    },
    {
      "anonymous": false,
      "inputs": [
        {
          "indexed": true,
          "internalType": "address",
          "name": "from",
          "type": "address"
        },
        {
          "indexed": true,
          "internalType": "address",
          "name": "to",
          "type": "address"
        },
        {
          "indexed": true,
          "internalType": "uint256",
          "name": "tokenId",
          "type": "uint256"
        }
      ],
      "name": "Transfer",
      "type": "event"
    },
    {
      "anonymous": false,
      "inputs": [
        {
          "indexed": false,
          "internalType": "string",
          "name": "func",
          "type": "string"
        },
        {
          "indexed": false,
          "internalType": "string",
          "name": "txn",
          "type": "string"
        },
        {
          "indexed": false,
          "internalType": "uint256",
          "name": "timestamp",
          "type": "uint256"
        },
        {
          "indexed": false,
          "internalType": "address",
          "name": "buyer",
          "type": "address"
        }
      ],
      "name": "_updateData",
      "type": "event"
    },
    {
      "inputs": [],
      "name": "Rowner",
      "outputs": [
        {
          "internalType": "address payable",
          "name": "",
          "type": "address"
        }
      ],
      "stateMutability": "view",
      "type": "function"
    },
    {
      "inputs": [
        {
          "internalType": "address",
          "name": "to",
          "type": "address"
        },
        {
          "internalType": "uint256",
          "name": "tokenId",
          "type": "uint256"
        }
      ],
      "name": "approve",
      "outputs": [],
      "stateMutability": "nonpayable",
      "type": "function"
    },
    {
      "inputs": [
        {
          "internalType": "address",
          "name": "owner",
          "type": "address"
        }
      ],
      "name": "balanceOf",
      "outputs": [
        {
          "internalType": "uint256",
          "name": "",
          "type": "uint256"
        }
      ],
      "stateMutability": "view",
      "type": "function"
    },
    {
      "inputs": [
        {
          "internalType": "string",
          "name": "name",
          "type": "string"
        },
        {
          "internalType": "string",
          "name": "message",
          "type": "string"
        },
        {
          "internalType": "string",
          "name": "cid",
          "type": "string"
        }
      ],
      "name": "buyChai",
      "outputs": [],
      "stateMutability": "payable",
      "type": "function"
    },
    {
      "inputs": [
        {
          "internalType": "uint256",
          "name": "tokenId",
          "type": "uint256"
        }
      ],
      "name": "createMarketSale",
      "outputs": [],
      "stateMutability": "payable",
      "type": "function"
    },
    {
      "inputs": [
        {
          "internalType": "string",
          "name": "tokenURI",
          "type": "string"
        },
        {
          "internalType": "uint256",
          "name": "price",
          "type": "uint256"
        }
      ],
      "name": "createToken",
      "outputs": [
        {
          "internalType": "uint256",
          "name": "",
          "type": "uint256"
        }
      ],
      "stateMutability": "payable",
      "type": "function"
    },
    {
      "inputs": [],
      "name": "fetchItemsListed",
      "outputs": [
        {
          "components": [
            {
              "internalType": "uint256",
              "name": "tokenId",
              "type": "uint256"
            },
            {
              "internalType": "address payable",
              "name": "seller",
              "type": "address"
            },
            {
              "internalType": "address payable",
              "name": "owner",
              "type": "address"
            },
            {
              "internalType": "uint256",
              "name": "price",
              "type": "uint256"
            },
            {
              "internalType": "bool",
              "name": "sold",
              "type": "bool"
            }
          ],
          "internalType": "struct NFTMarketplace.MarketItem[]",
          "name": "",
          "type": "tuple[]"
        }
      ],
      "stateMutability": "view",
      "type": "function"
    },
    {
      "inputs": [],
      "name": "fetchMarketItems",
      "outputs": [
        {
          "components": [
            {
              "internalType": "uint256",
              "name": "tokenId",
              "type": "uint256"
            },
            {
              "internalType": "address payable",
              "name": "seller",
              "type": "address"
            },
            {
              "internalType": "address payable",
              "name": "owner",
              "type": "address"
            },
            {
              "internalType": "uint256",
              "name": "price",
              "type": "uint256"
            },
            {
              "internalType": "bool",
              "name": "sold",
              "type": "bool"
            }
          ],
          "internalType": "struct NFTMarketplace.MarketItem[]",
          "name": "",
          "type": "tuple[]"
        }
      ],
      "stateMutability": "view",
      "type": "function"
    },
    {
      "inputs": [],
      "name": "fetchMyNFTs",
      "outputs": [
        {
          "components": [
            {
              "internalType": "uint256",
              "name": "tokenId",
              "type": "uint256"
            },
            {
              "internalType": "address payable",
              "name": "seller",
              "type": "address"
            },
            {
              "internalType": "address payable",
              "name": "owner",
              "type": "address"
            },
            {
              "internalType": "uint256",
              "name": "price",
              "type": "uint256"
            },
            {
              "internalType": "bool",
              "name": "sold",
              "type": "bool"
            }
          ],
          "internalType": "struct NFTMarketplace.MarketItem[]",
          "name": "",
          "type": "tuple[]"
        }
      ],
      "stateMutability": "view",
      "type": "function"
    },
    {
      "inputs": [
        {
          "internalType": "uint256",
          "name": "tokenId",
          "type": "uint256"
        }
      ],
      "name": "getApproved",
      "outputs": [
        {
          "internalType": "address",
          "name": "",
          "type": "address"
        }
      ],
      "stateMutability": "view",
      "type": "function"
    },
    {
      "inputs": [],
      "name": "getBalance",
      "outputs": [
        {
          "internalType": "uint256",
          "name": "",
          "type": "uint256"
        }
      ],
      "stateMutability": "view",
      "type": "function"
    },
    {
      "inputs": [],
      "name": "getListingPrice",
      "outputs": [
        {
          "internalType": "uint256",
          "name": "",
          "type": "uint256"
        }
      ],
      "stateMutability": "view",
      "type": "function"
    },
    {
      "inputs": [],
      "name": "getMemos",
      "outputs": [
        {
          "components": [
            {
              "internalType": "string",
              "name": "name",
              "type": "string"
            },
            {
              "internalType": "string",
              "name": "message",
              "type": "string"
            },
            {
              "internalType": "string",
              "name": "cid",
              "type": "string"
            },
            {
              "internalType": "uint256",
              "name": "timestamp",
              "type": "uint256"
            },
            {
              "internalType": "address",
              "name": "from",
              "type": "address"
            }
          ],
          "internalType": "struct NFTMarketplace.Memo[]",
          "name": "",
          "type": "tuple[]"
        }
      ],
      "stateMutability": "view",
      "type": "function"
    },
    {
      "inputs": [
        {
          "internalType": "address",
          "name": "owner",
          "type": "address"
        },
        {
          "internalType": "address",
          "name": "operator",
          "type": "address"
        }
      ],
      "name": "isApprovedForAll",
      "outputs": [
        {
          "internalType": "bool",
          "name": "",
          "type": "bool"
        }
      ],
      "stateMutability": "view",
      "type": "function"
    },
    {
      "inputs": [],
      "name": "name",
      "outputs": [
        {
          "internalType": "string",
          "name": "",
          "type": "string"
        }
      ],
      "stateMutability": "view",
      "type": "function"
    },
    {
      "inputs": [
        {
          "internalType": "uint256",
          "name": "tokenId",
          "type": "uint256"
        }
      ],
      "name": "ownerOf",
      "outputs": [
        {
          "internalType": "address",
          "name": "",
          "type": "address"
        }
      ],
      "stateMutability": "view",
      "type": "function"
    },
    {
      "inputs": [
        {
          "internalType": "uint256",
          "name": "tokenId",
          "type": "uint256"
        },
        {
          "internalType": "uint256",
          "name": "price",
          "type": "uint256"
        }
      ],
      "name": "resellToken",
      "outputs": [],
      "stateMutability": "payable",
      "type": "function"
    },
    {
      "inputs": [
        {
          "internalType": "address",
          "name": "from",
          "type": "address"
        },
        {
          "internalType": "address",
          "name": "to",
          "type": "address"
        },
        {
          "internalType": "uint256",
          "name": "tokenId",
          "type": "uint256"
        }
      ],
      "name": "safeTransferFrom",
      "outputs": [],
      "stateMutability": "nonpayable",
      "type": "function"
    },
    {
      "inputs": [
        {
          "internalType": "address",
          "name": "from",
          "type": "address"
        },
        {
          "internalType": "address",
          "name": "to",
          "type": "address"
        },
        {
          "internalType": "uint256",
          "name": "tokenId",
          "type": "uint256"
        },
        {
          "internalType": "bytes",
          "name": "data",
          "type": "bytes"
        }
      ],
      "name": "safeTransferFrom",
      "outputs": [],
      "stateMutability": "nonpayable",
      "type": "function"
    },
    {
      "inputs": [
        {
          "internalType": "address",
          "name": "operator",
          "type": "address"
        },
        {
          "internalType": "bool",
          "name": "approved",
          "type": "bool"
        }
      ],
      "name": "setApprovalForAll",
      "outputs": [],
      "stateMutability": "nonpayable",
      "type": "function"
    },
    {
      "inputs": [
        {
          "internalType": "bytes4",
          "name": "interfaceId",
          "type": "bytes4"
        }
      ],
      "name": "supportsInterface",
      "outputs": [
        {
          "internalType": "bool",
          "name": "",
          "type": "bool"
        }
      ],
      "stateMutability": "view",
      "type": "function"
    },
    {
      "inputs": [],
      "name": "symbol",
      "outputs": [
        {
          "internalType": "string",
          "name": "",
          "type": "string"
        }
      ],
      "stateMutability": "view",
      "type": "function"
    },
    {
      "inputs": [
        {
          "internalType": "uint256",
          "name": "tokenId",
          "type": "uint256"
        }
      ],
      "name": "tokenURI",
      "outputs": [
        {
          "internalType": "string",
          "name": "",
          "type": "string"
        }
      ],
      "stateMutability": "view",
      "type": "function"
    },
    {
      "inputs": [
        {
          "internalType": "address",
          "name": "from",
          "type": "address"
        },
        {
          "internalType": "address",
          "name": "to",
          "type": "address"
        },
        {
          "internalType": "uint256",
          "name": "tokenId",
          "type": "uint256"
        }
      ],
      "name": "transferFrom",
      "outputs": [],
      "stateMutability": "nonpayable",
      "type": "function"
    },
    {
      "inputs": [
        {
          "internalType": "string",
          "name": "func",
          "type": "string"
        },
        {
          "internalType": "string",
          "name": "txn",
          "type": "string"
        }
      ],
      "name": "updateData",
      "outputs": [],
      "stateMutability": "nonpayable",
      "type": "function"
    },
    {
      "inputs": [
        {
          "internalType": "uint256",
          "name": "_listingPrice",
          "type": "uint256"
        }
      ],
      "name": "updateListingPrice",
      "outputs": [],
      "stateMutability": "payable",
      "type": "function"
    }
  ],
  "bytecode": "0x60806040526658d15e17628000600a553480156200001c57600080fd5b506040518060400160405280601081526020017f4d657461766572736520546f6b656e73000000000000000000000000000000008152506040518060400160405280600481526020017f4d455454000000000000000000000000000000000000000000000000000000008152508160009080519060200190620000a192919062000145565b508060019080519060200190620000ba92919062000145565b50505033600e60006101000a81548173ffffffffffffffffffffffffffffffffffffffff021916908373ffffffffffffffffffffffffffffffffffffffff16021790555033600b60006101000a81548173ffffffffffffffffffffffffffffffffffffffff021916908373ffffffffffffffffffffffffffffffffffffffff1602179055506200025a565b828054620001539062000224565b90600052602060002090601f016020900481019282620001775760008555620001c3565b82601f106200019257805160ff1916838001178555620001c3565b82800160010185558215620001c3579182015b82811115620001c2578251825591602001919060010190620001a5565b5b509050620001d29190620001d6565b5090565b5b80821115620001f1576000816000905550600101620001d7565b5090565b7f4e487b7100000000000000000000000000000000000000000000000000000000600052602260045260246000fd5b600060028204905060018216806200023d57607f821691505b60208210811415620002545762000253620001f5565b5b50919050565b614c8e806200026a6000396000f3fe6080604052600436106101815760003560e01c806372b3b620116100d1578063b88d4fde1161008a578063c87b56dd11610064578063c87b56dd1461055b578063e219fc7514610598578063e2ede73d146105b4578063e985e9c5146105d057610181565b8063b88d4fde146104ed578063bddbb02314610516578063be9af5361461053f57610181565b806372b3b620146103f7578063865c51721461042757806395d89b4114610452578063a0d180451461047d578063a22cb465146104a8578063ae677aa3146104d157610181565b806312e855851161013e57806342842e0e1161011857806342842e0e1461032957806345f8fa80146103525780636352211e1461037d57806370a08231146103ba57610181565b806312e85585146102aa578063202e3740146102d557806323b872dd1461030057610181565b806301ffc9a71461018657806306fdde03146101c3578063081812fc146101ee578063095ea7b31461022b5780630f08efe01461025457806312065fe01461027f575b600080fd5b34801561019257600080fd5b506101ad60048036038101906101a8919061333f565b61060d565b6040516101ba9190613387565b60405180910390f35b3480156101cf57600080fd5b506101d861066e565b6040516101e5919061343b565b60405180910390f35b3480156101fa57600080fd5b5061021560048036038101906102109190613493565b610700565b6040516102229190613501565b60405180910390f35b34801561023757600080fd5b50610252600480360381019061024d9190613548565b610746565b005b34801561026057600080fd5b5061026961085e565b60405161027691906136de565b60405180910390f35b34801561028b57600080fd5b50610294610ac7565b6040516102a1919061370f565b60405180910390f35b3480156102b657600080fd5b506102bf610b08565b6040516102cc919061370f565b60405180910390f35b3480156102e157600080fd5b506102ea610b12565b6040516102f791906136de565b60405180910390f35b34801561030c57600080fd5b506103276004803603810190610322919061372a565b610e00565b005b34801561033557600080fd5b50610350600480360381019061034b919061372a565b610e60565b005b34801561035e57600080fd5b50610367610e80565b60405161037491906136de565b60405180910390f35b34801561038957600080fd5b506103a4600480360381019061039f9190613493565b61116e565b6040516103b19190613501565b60405180910390f35b3480156103c657600080fd5b506103e160048036038101906103dc919061377d565b6111f5565b6040516103ee919061370f565b60405180910390f35b610411600480360381019061040c91906138df565b6112ad565b60405161041e919061370f565b60405180910390f35b34801561043357600080fd5b5061043c61132a565b6040516104499190613ada565b60405180910390f35b34801561045e57600080fd5b5061046761159f565b604051610474919061343b565b60405180910390f35b34801561048957600080fd5b50610492611631565b60405161049f9190613b0b565b60405180910390f35b3480156104b457600080fd5b506104cf60048036038101906104ca9190613b52565b611657565b005b6104eb60048036038101906104e69190613493565b61166d565b005b3480156104f957600080fd5b50610514600480360381019061050f9190613c33565b611740565b005b34801561052257600080fd5b5061053d60048036038101906105389190613cb6565b6117a2565b005b61055960048036038101906105549190613493565b6117e3565b005b34801561056757600080fd5b50610582600480360381019061057d9190613493565b611a5d565b60405161058f919061343b565b60405180910390f35b6105b260048036038101906105ad9190613d2e565b611b70565b005b6105ce60048036038101906105c99190613d6e565b611da1565b005b3480156105dc57600080fd5b506105f760048036038101906105f29190613e15565b611f64565b6040516106049190613387565b60405180910390f35b6000634906490660e01b7bffffffffffffffffffffffffffffffffffffffffffffffffffffffff1916827bffffffffffffffffffffffffffffffffffffffffffffffffffffffff19161480610667575061066682611ff8565b5b9050919050565b60606000805461067d90613e84565b80601f01602080910402602001604051908101604052809291908181526020018280546106a990613e84565b80156106f65780601f106106cb576101008083540402835291602001916106f6565b820191906000526020600020905b8154815290600101906020018083116106d957829003601f168201915b5050505050905090565b600061070b826120da565b6004600083815260200190815260200160002060009054906101000a900473ffffffffffffffffffffffffffffffffffffffff169050919050565b60006107518261116e565b90508073ffffffffffffffffffffffffffffffffffffffff168373ffffffffffffffffffffffffffffffffffffffff1614156107c2576040517f08c379a00000000000000000000000000000000000000000000000000000000081526004016107b990613f28565b60405180910390fd5b8073ffffffffffffffffffffffffffffffffffffffff166107e1612125565b73ffffffffffffffffffffffffffffffffffffffff161480610810575061080f8161080a612125565b611f64565b5b61084f576040517f08c379a000000000000000000000000000000000000000000000000000000000815260040161084690613fba565b60405180910390fd5b610859838361212d565b505050565b6060600061086c60076121e6565b9050600061087a60086121e6565b61088460076121e6565b61088e9190614009565b90506000808267ffffffffffffffff8111156108ad576108ac6137b4565b5b6040519080825280602002602001820160405280156108e657816020015b6108d36131d3565b8152602001906001900390816108cb5790505b50905060005b84811015610abc573073ffffffffffffffffffffffffffffffffffffffff16600c600060018461091c919061403d565b815260200190815260200160002060020160009054906101000a900473ffffffffffffffffffffffffffffffffffffffff1673ffffffffffffffffffffffffffffffffffffffff161415610aa9576000600182610979919061403d565b90506000600c60008381526020019081526020016000209050806040518060a0016040529081600082015481526020016001820160009054906101000a900473ffffffffffffffffffffffffffffffffffffffff1673ffffffffffffffffffffffffffffffffffffffff1673ffffffffffffffffffffffffffffffffffffffff1681526020016002820160009054906101000a900473ffffffffffffffffffffffffffffffffffffffff1673ffffffffffffffffffffffffffffffffffffffff1673ffffffffffffffffffffffffffffffffffffffff168152602001600382015481526020016004820160009054906101000a900460ff161515151581525050848681518110610a8c57610a8b614093565b5b6020026020010181905250600185610aa4919061403d565b945050505b8080610ab4906140c2565b9150506108ec565b508094505050505090565b6000600e60009054906101000a900473ffffffffffffffffffffffffffffffffffffffff1673ffffffffffffffffffffffffffffffffffffffff1631905090565b6000600a54905090565b60606000610b2060076121e6565b905060008060005b83811015610bc9573373ffffffffffffffffffffffffffffffffffffffff16600c6000600184610b58919061403d565b815260200190815260200160002060020160009054906101000a900473ffffffffffffffffffffffffffffffffffffffff1673ffffffffffffffffffffffffffffffffffffffff161415610bb657600183610bb3919061403d565b92505b8080610bc1906140c2565b915050610b28565b5060008267ffffffffffffffff811115610be657610be56137b4565b5b604051908082528060200260200182016040528015610c1f57816020015b610c0c6131d3565b815260200190600190039081610c045790505b50905060005b84811015610df5573373ffffffffffffffffffffffffffffffffffffffff16600c6000600184610c55919061403d565b815260200190815260200160002060020160009054906101000a900473ffffffffffffffffffffffffffffffffffffffff1673ffffffffffffffffffffffffffffffffffffffff161415610de2576000600182610cb2919061403d565b90506000600c60008381526020019081526020016000209050806040518060a0016040529081600082015481526020016001820160009054906101000a900473ffffffffffffffffffffffffffffffffffffffff1673ffffffffffffffffffffffffffffffffffffffff1673ffffffffffffffffffffffffffffffffffffffff1681526020016002820160009054906101000a900473ffffffffffffffffffffffffffffffffffffffff1673ffffffffffffffffffffffffffffffffffffffff1673ffffffffffffffffffffffffffffffffffffffff168152602001600382015481526020016004820160009054906101000a900460ff161515151581525050848681518110610dc557610dc4614093565b5b6020026020010181905250600185610ddd919061403d565b945050505b8080610ded906140c2565b915050610c25565b508094505050505090565b610e11610e0b612125565b826121f4565b610e50576040517f08c379a0000000000000000000000000000000000000000000000000000000008152600401610e479061417d565b60405180910390fd5b610e5b838383612289565b505050565b610e7b83838360405180602001604052806000815250611740565b505050565b60606000610e8e60076121e6565b905060008060005b83811015610f37573373ffffffffffffffffffffffffffffffffffffffff16600c6000600184610ec6919061403d565b815260200190815260200160002060010160009054906101000a900473ffffffffffffffffffffffffffffffffffffffff1673ffffffffffffffffffffffffffffffffffffffff161415610f2457600183610f21919061403d565b92505b8080610f2f906140c2565b915050610e96565b5060008267ffffffffffffffff811115610f5457610f536137b4565b5b604051908082528060200260200182016040528015610f8d57816020015b610f7a6131d3565b815260200190600190039081610f725790505b50905060005b84811015611163573373ffffffffffffffffffffffffffffffffffffffff16600c6000600184610fc3919061403d565b815260200190815260200160002060010160009054906101000a900473ffffffffffffffffffffffffffffffffffffffff1673ffffffffffffffffffffffffffffffffffffffff161415611150576000600182611020919061403d565b90506000600c60008381526020019081526020016000209050806040518060a0016040529081600082015481526020016001820160009054906101000a900473ffffffffffffffffffffffffffffffffffffffff1673ffffffffffffffffffffffffffffffffffffffff1673ffffffffffffffffffffffffffffffffffffffff1681526020016002820160009054906101000a900473ffffffffffffffffffffffffffffffffffffffff1673ffffffffffffffffffffffffffffffffffffffff1673ffffffffffffffffffffffffffffffffffffffff168152602001600382015481526020016004820160009054906101000a900460ff16151515158152505084868151811061113357611132614093565b5b602002602001018190525060018561114b919061403d565b945050505b808061115b906140c2565b915050610f93565b508094505050505090565b60008061117a83612583565b9050600073ffffffffffffffffffffffffffffffffffffffff168173ffffffffffffffffffffffffffffffffffffffff1614156111ec576040517f08c379a00000000000000000000000000000000000000000000000000000000081526004016111e3906141e9565b60405180910390fd5b80915050919050565b60008073ffffffffffffffffffffffffffffffffffffffff168273ffffffffffffffffffffffffffffffffffffffff161415611266576040517f08c379a000000000000000000000000000000000000000000000000000000000815260040161125d9061427b565b60405180910390fd5b600360008373ffffffffffffffffffffffffffffffffffffffff1673ffffffffffffffffffffffffffffffffffffffff168152602001908152602001600020549050919050565b60006112b960076125c0565b60006112c560076121e6565b90506112d133826125d6565b6112db81856127f4565b6112e5818461289f565b7f147651284223d3ef52595d290770d56fe223d47d9ffb078cb90d5ddd6827a00d8484836040516113189392919061429b565b60405180910390a18091505092915050565b6060600d805480602002602001604051908101604052809291908181526020016000905b8282101561159657838290600052602060002090600502016040518060a001604052908160008201805461138190613e84565b80601f01602080910402602001604051908101604052809291908181526020018280546113ad90613e84565b80156113fa5780601f106113cf576101008083540402835291602001916113fa565b820191906000526020600020905b8154815290600101906020018083116113dd57829003601f168201915b5050505050815260200160018201805461141390613e84565b80601f016020809104026020016040519081016040528092919081815260200182805461143f90613e84565b801561148c5780601f106114615761010080835404028352916020019161148c565b820191906000526020600020905b81548152906001019060200180831161146f57829003601f168201915b505050505081526020016002820180546114a590613e84565b80601f01602080910402602001604051908101604052809291908181526020018280546114d190613e84565b801561151e5780601f106114f35761010080835404028352916020019161151e565b820191906000526020600020905b81548152906001019060200180831161150157829003601f168201915b50505050508152602001600382015481526020016004820160009054906101000a900473ffffffffffffffffffffffffffffffffffffffff1673ffffffffffffffffffffffffffffffffffffffff1673ffffffffffffffffffffffffffffffffffffffff16815250508152602001906001019061134e565b50505050905090565b6060600180546115ae90613e84565b80601f01602080910402602001604051908101604052809291908181526020018280546115da90613e84565b80156116275780601f106115fc57610100808354040283529160200191611627565b820191906000526020600020905b81548152906001019060200180831161160a57829003601f168201915b5050505050905090565b600e60009054906101000a900473ffffffffffffffffffffffffffffffffffffffff1681565b611669611662612125565b8383612aa2565b5050565b3373ffffffffffffffffffffffffffffffffffffffff16600b60009054906101000a900473ffffffffffffffffffffffffffffffffffffffff1673ffffffffffffffffffffffffffffffffffffffff16146116fd576040517f08c379a00000000000000000000000000000000000000000000000000000000081526004016116f49061434b565b60405180910390fd5b80600a819055507f661c8d2e494b21e778d6b19ffb42ca00ee63062be7f9eb28af0850e01a9cf214600a54604051611735919061370f565b60405180910390a150565b61175161174b612125565b836121f4565b611790576040517f08c379a00000000000000000000000000000000000000000000000000000000081526004016117879061417d565b60405180910390fd5b61179c84848484612c0f565b50505050565b7fef7a241cc9241124a3a3e7260df9cc37f05108c0a0bd61fc0329156285a7dd6c828242336040516117d7949392919061436b565b60405180910390a15050565b6000600c60008381526020019081526020016000206003015490506000600c600084815260200190815260200160002060010160009054906101000a900473ffffffffffffffffffffffffffffffffffffffff16905081341461187b576040517f08c379a000000000000000000000000000000000000000000000000000000000815260040161187290614430565b60405180910390fd5b33600c600085815260200190815260200160002060020160006101000a81548173ffffffffffffffffffffffffffffffffffffffff021916908373ffffffffffffffffffffffffffffffffffffffff1602179055506001600c600085815260200190815260200160002060040160006101000a81548160ff0219169083151502179055506000600c600085815260200190815260200160002060010160006101000a81548173ffffffffffffffffffffffffffffffffffffffff021916908373ffffffffffffffffffffffffffffffffffffffff16021790555061195f60086125c0565b61196a303385612289565b600b60009054906101000a900473ffffffffffffffffffffffffffffffffffffffff1673ffffffffffffffffffffffffffffffffffffffff166108fc600a549081150290604051600060405180830381858888f193505050501580156119d4573d6000803e3d6000fd5b508073ffffffffffffffffffffffffffffffffffffffff166108fc349081150290604051600060405180830381858888f19350505050158015611a1b573d6000803e3d6000fd5b50827f92702ca16506c19534081722898e3d74348202feb9cec071d74fc908c67dd03e338385604051611a5093929190614450565b60405180910390a2505050565b6060611a68826120da565b6000600660008481526020019081526020016000208054611a8890613e84565b80601f0160208091040260200160405190810160405280929190818152602001828054611ab490613e84565b8015611b015780601f10611ad657610100808354040283529160200191611b01565b820191906000526020600020905b815481529060010190602001808311611ae457829003601f168201915b505050505090506000611b12612c6b565b9050600081511415611b28578192505050611b6b565b600082511115611b5d578082604051602001611b459291906144c3565b60405160208183030381529060405292505050611b6b565b611b6684612c82565b925050505b919050565b3373ffffffffffffffffffffffffffffffffffffffff16600c600084815260200190815260200160002060020160009054906101000a900473ffffffffffffffffffffffffffffffffffffffff1673ffffffffffffffffffffffffffffffffffffffff1614611c14576040517f08c379a0000000000000000000000000000000000000000000000000000000008152600401611c0b90614559565b60405180910390fd5b600a543414611c58576040517f08c379a0000000000000000000000000000000000000000000000000000000008152600401611c4f906145eb565b60405180910390fd5b6000600c600084815260200190815260200160002060040160006101000a81548160ff02191690831515021790555080600c60008481526020019081526020016000206003018190555033600c600084815260200190815260200160002060010160006101000a81548173ffffffffffffffffffffffffffffffffffffffff021916908373ffffffffffffffffffffffffffffffffffffffff16021790555030600c600084815260200190815260200160002060020160006101000a81548173ffffffffffffffffffffffffffffffffffffffff021916908373ffffffffffffffffffffffffffffffffffffffff160217905550611d566008612cea565b611d61333084612289565b817fc6b0d13d6c1af02bfe5761531c93b25f6078fbae63c013f2afb85a0a42ffc1f3333084604051611d9593929190614450565b60405180910390a25050565b60003411611de4576040517f08c379a0000000000000000000000000000000000000000000000000000000008152600401611ddb9061467d565b60405180910390fd5b600e60009054906101000a900473ffffffffffffffffffffffffffffffffffffffff1673ffffffffffffffffffffffffffffffffffffffff166108fc349081150290604051600060405180830381858888f19350505050158015611e4c573d6000803e3d6000fd5b50600d6040518060a001604052808581526020018481526020018381526020014281526020013373ffffffffffffffffffffffffffffffffffffffff1681525090806001815401808255809150506001900390600052602060002090600502016000909190919091506000820151816000019080519060200190611ed1929190613230565b506020820151816001019080519060200190611eee929190613230565b506040820151816002019080519060200190611f0b929190613230565b506060820151816003015560808201518160040160006101000a81548173ffffffffffffffffffffffffffffffffffffffff021916908373ffffffffffffffffffffffffffffffffffffffff1602179055505050505050565b6000600560008473ffffffffffffffffffffffffffffffffffffffff1673ffffffffffffffffffffffffffffffffffffffff16815260200190815260200160002060008373ffffffffffffffffffffffffffffffffffffffff1673ffffffffffffffffffffffffffffffffffffffff16815260200190815260200160002060009054906101000a900460ff16905092915050565b60007f80ac58cd000000000000000000000000000000000000000000000000000000007bffffffffffffffffffffffffffffffffffffffffffffffffffffffff1916827bffffffffffffffffffffffffffffffffffffffffffffffffffffffff191614806120c357507f5b5e139f000000000000000000000000000000000000000000000000000000007bffffffffffffffffffffffffffffffffffffffffffffffffffffffff1916827bffffffffffffffffffffffffffffffffffffffffffffffffffffffff1916145b806120d357506120d282612d46565b5b9050919050565b6120e381612db0565b612122576040517f08c379a0000000000000000000000000000000000000000000000000000000008152600401612119906141e9565b60405180910390fd5b50565b600033905090565b816004600083815260200190815260200160002060006101000a81548173ffffffffffffffffffffffffffffffffffffffff021916908373ffffffffffffffffffffffffffffffffffffffff160217905550808273ffffffffffffffffffffffffffffffffffffffff166121a08361116e565b73ffffffffffffffffffffffffffffffffffffffff167f8c5be1e5ebec7d5bd14f71427d1e84f3dd0314c0f7b2291e5b200ac8c7c3b92560405160405180910390a45050565b600081600001549050919050565b6000806122008361116e565b90508073ffffffffffffffffffffffffffffffffffffffff168473ffffffffffffffffffffffffffffffffffffffff16148061224257506122418185611f64565b5b8061228057508373ffffffffffffffffffffffffffffffffffffffff1661226884610700565b73ffffffffffffffffffffffffffffffffffffffff16145b91505092915050565b8273ffffffffffffffffffffffffffffffffffffffff166122a98261116e565b73ffffffffffffffffffffffffffffffffffffffff16146122ff576040517f08c379a00000000000000000000000000000000000000000000000000000000081526004016122f69061470f565b60405180910390fd5b600073ffffffffffffffffffffffffffffffffffffffff168273ffffffffffffffffffffffffffffffffffffffff16141561236f576040517f08c379a0000000000000000000000000000000000000000000000000000000008152600401612366906147a1565b60405180910390fd5b61237c8383836001612df1565b8273ffffffffffffffffffffffffffffffffffffffff1661239c8261116e565b73ffffffffffffffffffffffffffffffffffffffff16146123f2576040517f08c379a00000000000000000000000000000000000000000000000000000000081526004016123e99061470f565b60405180910390fd5b6004600082815260200190815260200160002060006101000a81549073ffffffffffffffffffffffffffffffffffffffff02191690556001600360008573ffffffffffffffffffffffffffffffffffffffff1673ffffffffffffffffffffffffffffffffffffffff168152602001908152602001600020600082825403925050819055506001600360008473ffffffffffffffffffffffffffffffffffffffff1673ffffffffffffffffffffffffffffffffffffffff16815260200190815260200160002060008282540192505081905550816002600083815260200190815260200160002060006101000a81548173ffffffffffffffffffffffffffffffffffffffff021916908373ffffffffffffffffffffffffffffffffffffffff160217905550808273ffffffffffffffffffffffffffffffffffffffff168473ffffffffffffffffffffffffffffffffffffffff167fddf252ad1be2c89b69c2b068fc378daa952ba7f163c4a11628f55a4df523b3ef60405160405180910390a461257e8383836001612df7565b505050565b60006002600083815260200190815260200160002060009054906101000a900473ffffffffffffffffffffffffffffffffffffffff169050919050565b6001816000016000828254019250508190555050565b600073ffffffffffffffffffffffffffffffffffffffff168273ffffffffffffffffffffffffffffffffffffffff161415612646576040517f08c379a000000000000000000000000000000000000000000000000000000000815260040161263d9061480d565b60405180910390fd5b61264f81612db0565b1561268f576040517f08c379a000000000000000000000000000000000000000000000000000000000815260040161268690614879565b60405180910390fd5b61269d600083836001612df1565b6126a681612db0565b156126e6576040517f08c379a00000000000000000000000000000000000000000000000000000000081526004016126dd90614879565b60405180910390fd5b6001600360008473ffffffffffffffffffffffffffffffffffffffff1673ffffffffffffffffffffffffffffffffffffffff16815260200190815260200160002060008282540192505081905550816002600083815260200190815260200160002060006101000a81548173ffffffffffffffffffffffffffffffffffffffff021916908373ffffffffffffffffffffffffffffffffffffffff160217905550808273ffffffffffffffffffffffffffffffffffffffff16600073ffffffffffffffffffffffffffffffffffffffff167fddf252ad1be2c89b69c2b068fc378daa952ba7f163c4a11628f55a4df523b3ef60405160405180910390a46127f0600083836001612df7565b5050565b6127fd82612db0565b61283c576040517f08c379a00000000000000000000000000000000000000000000000000000000081526004016128339061490b565b60405180910390fd5b80600660008481526020019081526020016000209080519060200190612863929190613230565b507ff8e1a15aba9398e019f0b49df1a4fde98ee17ae345cb5f6b5e2c27f5033e8ce782604051612893919061370f565b60405180910390a15050565b600081116128e2576040517f08c379a00000000000000000000000000000000000000000000000000000000081526004016128d990614977565b60405180910390fd5b600a543414612926576040517f08c379a000000000000000000000000000000000000000000000000000000000815260040161291d906145eb565b60405180910390fd5b6040518060a001604052808381526020013373ffffffffffffffffffffffffffffffffffffffff1681526020013073ffffffffffffffffffffffffffffffffffffffff16815260200182815260200160001515815250600c60008481526020019081526020016000206000820151816000015560208201518160010160006101000a81548173ffffffffffffffffffffffffffffffffffffffff021916908373ffffffffffffffffffffffffffffffffffffffff16021790555060408201518160020160006101000a81548173ffffffffffffffffffffffffffffffffffffffff021916908373ffffffffffffffffffffffffffffffffffffffff1602179055506060820151816003015560808201518160040160006101000a81548160ff021916908315150217905550905050612a5f333084612289565b817fb640004f1d14576d0c209e240cad0410e0d8c0c33a09375861fbadae2588a98d3330846000604051612a969493929190614997565b60405180910390a25050565b8173ffffffffffffffffffffffffffffffffffffffff168373ffffffffffffffffffffffffffffffffffffffff161415612b11576040517f08c379a0000000000000000000000000000000000000000000000000000000008152600401612b0890614a28565b60405180910390fd5b80600560008573ffffffffffffffffffffffffffffffffffffffff1673ffffffffffffffffffffffffffffffffffffffff16815260200190815260200160002060008473ffffffffffffffffffffffffffffffffffffffff1673ffffffffffffffffffffffffffffffffffffffff16815260200190815260200160002060006101000a81548160ff0219169083151502179055508173ffffffffffffffffffffffffffffffffffffffff168373ffffffffffffffffffffffffffffffffffffffff167f17307eab39ab6107e8899845ad3d59bd9653f200f220920489ca2b5937696c3183604051612c029190613387565b60405180910390a3505050565b612c1a848484612289565b612c2684848484612dfd565b612c65576040517f08c379a0000000000000000000000000000000000000000000000000000000008152600401612c5c90614aba565b60405180910390fd5b50505050565b606060405180602001604052806000815250905090565b6060612c8d826120da565b6000612c97612c6b565b90506000815111612cb75760405180602001604052806000815250612ce2565b80612cc184612f85565b604051602001612cd29291906144c3565b6040516020818303038152906040525b915050919050565b60008160000154905060008111612d36576040517f08c379a0000000000000000000000000000000000000000000000000000000008152600401612d2d90614b26565b60405180910390fd5b6001810382600001819055505050565b60007f01ffc9a7000000000000000000000000000000000000000000000000000000007bffffffffffffffffffffffffffffffffffffffffffffffffffffffff1916827bffffffffffffffffffffffffffffffffffffffffffffffffffffffff1916149050919050565b60008073ffffffffffffffffffffffffffffffffffffffff16612dd283612583565b73ffffffffffffffffffffffffffffffffffffffff1614159050919050565b50505050565b50505050565b6000612e1e8473ffffffffffffffffffffffffffffffffffffffff1661305d565b15612f78578373ffffffffffffffffffffffffffffffffffffffff1663150b7a02612e47612125565b8786866040518563ffffffff1660e01b8152600401612e699493929190614b9b565b6020604051808303816000875af1925050508015612ea557506040513d601f19601f82011682018060405250810190612ea29190614bfc565b60015b612f28573d8060008114612ed5576040519150601f19603f3d011682016040523d82523d6000602084013e612eda565b606091505b50600081511415612f20576040517f08c379a0000000000000000000000000000000000000000000000000000000008152600401612f1790614aba565b60405180910390fd5b805181602001fd5b63150b7a0260e01b7bffffffffffffffffffffffffffffffffffffffffffffffffffffffff1916817bffffffffffffffffffffffffffffffffffffffffffffffffffffffff191614915050612f7d565b600190505b949350505050565b606060006001612f9484613080565b01905060008167ffffffffffffffff811115612fb357612fb26137b4565b5b6040519080825280601f01601f191660200182016040528015612fe55781602001600182028036833780820191505090505b509050600082602001820190505b600115613052578080600190039150507f3031323334353637383961626364656600000000000000000000000000000000600a86061a8153600a858161303c5761303b614c29565b5b049450600085141561304d57613052565b612ff3565b819350505050919050565b6000808273ffffffffffffffffffffffffffffffffffffffff163b119050919050565b600080600090507a184f03e93ff9f4daa797ed6e38ed64bf6a1f01000000000000000083106130de577a184f03e93ff9f4daa797ed6e38ed64bf6a1f01000000000000000083816130d4576130d3614c29565b5b0492506040810190505b6d04ee2d6d415b85acef8100000000831061311b576d04ee2d6d415b85acef8100000000838161311157613110614c29565b5b0492506020810190505b662386f26fc10000831061314a57662386f26fc1000083816131405761313f614c29565b5b0492506010810190505b6305f5e1008310613173576305f5e100838161316957613168614c29565b5b0492506008810190505b612710831061319857612710838161318e5761318d614c29565b5b0492506004810190505b606483106131bb57606483816131b1576131b0614c29565b5b0492506002810190505b600a83106131ca576001810190505b80915050919050565b6040518060a0016040528060008152602001600073ffffffffffffffffffffffffffffffffffffffff168152602001600073ffffffffffffffffffffffffffffffffffffffff168152602001600081526020016000151581525090565b82805461323c90613e84565b90600052602060002090601f01602090048101928261325e57600085556132a5565b82601f1061327757805160ff19168380011785556132a5565b828001600101855582156132a5579182015b828111156132a4578251825591602001919060010190613289565b5b5090506132b291906132b6565b5090565b5b808211156132cf5760008160009055506001016132b7565b5090565b6000604051905090565b600080fd5b600080fd5b60007fffffffff0000000000000000000000000000000000000000000000000000000082169050919050565b61331c816132e7565b811461332757600080fd5b50565b60008135905061333981613313565b92915050565b600060208284031215613355576133546132dd565b5b60006133638482850161332a565b91505092915050565b60008115159050919050565b6133818161336c565b82525050565b600060208201905061339c6000830184613378565b92915050565b600081519050919050565b600082825260208201905092915050565b60005b838110156133dc5780820151818401526020810190506133c1565b838111156133eb576000848401525b50505050565b6000601f19601f8301169050919050565b600061340d826133a2565b61341781856133ad565b93506134278185602086016133be565b613430816133f1565b840191505092915050565b600060208201905081810360008301526134558184613402565b905092915050565b6000819050919050565b6134708161345d565b811461347b57600080fd5b50565b60008135905061348d81613467565b92915050565b6000602082840312156134a9576134a86132dd565b5b60006134b78482850161347e565b91505092915050565b600073ffffffffffffffffffffffffffffffffffffffff82169050919050565b60006134eb826134c0565b9050919050565b6134fb816134e0565b82525050565b600060208201905061351660008301846134f2565b92915050565b613525816134e0565b811461353057600080fd5b50565b6000813590506135428161351c565b92915050565b6000806040838503121561355f5761355e6132dd565b5b600061356d85828601613533565b925050602061357e8582860161347e565b9150509250929050565b600081519050919050565b600082825260208201905092915050565b6000819050602082019050919050565b6135bd8161345d565b82525050565b60006135ce826134c0565b9050919050565b6135de816135c3565b82525050565b6135ed8161336c565b82525050565b60a08201600082015161360960008501826135b4565b50602082015161361c60208501826135d5565b50604082015161362f60408501826135d5565b50606082015161364260608501826135b4565b50608082015161365560808501826135e4565b50505050565b600061366783836135f3565b60a08301905092915050565b6000602082019050919050565b600061368b82613588565b6136958185613593565b93506136a0836135a4565b8060005b838110156136d15781516136b8888261365b565b97506136c383613673565b9250506001810190506136a4565b5085935050505092915050565b600060208201905081810360008301526136f88184613680565b905092915050565b6137098161345d565b82525050565b60006020820190506137246000830184613700565b92915050565b600080600060608486031215613743576137426132dd565b5b600061375186828701613533565b935050602061376286828701613533565b92505060406137738682870161347e565b9150509250925092565b600060208284031215613793576137926132dd565b5b60006137a184828501613533565b91505092915050565b600080fd5b600080fd5b7f4e487b7100000000000000000000000000000000000000000000000000000000600052604160045260246000fd5b6137ec826133f1565b810181811067ffffffffffffffff8211171561380b5761380a6137b4565b5b80604052505050565b600061381e6132d3565b905061382a82826137e3565b919050565b600067ffffffffffffffff82111561384a576138496137b4565b5b613853826133f1565b9050602081019050919050565b82818337600083830152505050565b600061388261387d8461382f565b613814565b90508281526020810184848401111561389e5761389d6137af565b5b6138a9848285613860565b509392505050565b600082601f8301126138c6576138c56137aa565b5b81356138d684826020860161386f565b91505092915050565b600080604083850312156138f6576138f56132dd565b5b600083013567ffffffffffffffff811115613914576139136132e2565b5b613920858286016138b1565b92505060206139318582860161347e565b9150509250929050565b600081519050919050565b600082825260208201905092915050565b6000819050602082019050919050565b600082825260208201905092915050565b6000613983826133a2565b61398d8185613967565b935061399d8185602086016133be565b6139a6816133f1565b840191505092915050565b6139ba816134e0565b82525050565b600060a08301600083015184820360008601526139dd8282613978565b915050602083015184820360208601526139f78282613978565b91505060408301518482036040860152613a118282613978565b9150506060830151613a2660608601826135b4565b506080830151613a3960808601826139b1565b508091505092915050565b6000613a5083836139c0565b905092915050565b6000602082019050919050565b6000613a708261393b565b613a7a8185613946565b935083602082028501613a8c85613957565b8060005b85811015613ac85784840389528151613aa98582613a44565b9450613ab483613a58565b925060208a01995050600181019050613a90565b50829750879550505050505092915050565b60006020820190508181036000830152613af48184613a65565b905092915050565b613b05816135c3565b82525050565b6000602082019050613b206000830184613afc565b92915050565b613b2f8161336c565b8114613b3a57600080fd5b50565b600081359050613b4c81613b26565b92915050565b60008060408385031215613b6957613b686132dd565b5b6000613b7785828601613533565b9250506020613b8885828601613b3d565b9150509250929050565b600067ffffffffffffffff821115613bad57613bac6137b4565b5b613bb6826133f1565b9050602081019050919050565b6000613bd6613bd184613b92565b613814565b905082815260208101848484011115613bf257613bf16137af565b5b613bfd848285613860565b509392505050565b600082601f830112613c1a57613c196137aa565b5b8135613c2a848260208601613bc3565b91505092915050565b60008060008060808587031215613c4d57613c4c6132dd565b5b6000613c5b87828801613533565b9450506020613c6c87828801613533565b9350506040613c7d8782880161347e565b925050606085013567ffffffffffffffff811115613c9e57613c9d6132e2565b5b613caa87828801613c05565b91505092959194509250565b60008060408385031215613ccd57613ccc6132dd565b5b600083013567ffffffffffffffff811115613ceb57613cea6132e2565b5b613cf7858286016138b1565b925050602083013567ffffffffffffffff811115613d1857613d176132e2565b5b613d24858286016138b1565b9150509250929050565b60008060408385031215613d4557613d446132dd565b5b6000613d538582860161347e565b9250506020613d648582860161347e565b9150509250929050565b600080600060608486031215613d8757613d866132dd565b5b600084013567ffffffffffffffff811115613da557613da46132e2565b5b613db1868287016138b1565b935050602084013567ffffffffffffffff811115613dd257613dd16132e2565b5b613dde868287016138b1565b925050604084013567ffffffffffffffff811115613dff57613dfe6132e2565b5b613e0b868287016138b1565b9150509250925092565b60008060408385031215613e2c57613e2b6132dd565b5b6000613e3a85828601613533565b9250506020613e4b85828601613533565b9150509250929050565b7f4e487b7100000000000000000000000000000000000000000000000000000000600052602260045260246000fd5b60006002820490506001821680613e9c57607f821691505b60208210811415613eb057613eaf613e55565b5b50919050565b7f4552433732313a20617070726f76616c20746f2063757272656e74206f776e6560008201527f7200000000000000000000000000000000000000000000000000000000000000602082015250565b6000613f126021836133ad565b9150613f1d82613eb6565b604082019050919050565b60006020820190508181036000830152613f4181613f05565b9050919050565b7f4552433732313a20617070726f76652063616c6c6572206973206e6f7420746f60008201527f6b656e206f776e6572206f7220617070726f76656420666f7220616c6c000000602082015250565b6000613fa4603d836133ad565b9150613faf82613f48565b604082019050919050565b60006020820190508181036000830152613fd381613f97565b9050919050565b7f4e487b7100000000000000000000000000000000000000000000000000000000600052601160045260246000fd5b60006140148261345d565b915061401f8361345d565b92508282101561403257614031613fda565b5b828203905092915050565b60006140488261345d565b91506140538361345d565b9250827fffffffffffffffffffffffffffffffffffffffffffffffffffffffffffffffff0382111561408857614087613fda565b5b828201905092915050565b7f4e487b7100000000000000000000000000000000000000000000000000000000600052603260045260246000fd5b60006140cd8261345d565b91507fffffffffffffffffffffffffffffffffffffffffffffffffffffffffffffffff821415614100576140ff613fda565b5b600182019050919050565b7f4552433732313a2063616c6c6572206973206e6f7420746f6b656e206f776e6560008201527f72206f7220617070726f76656400000000000000000000000000000000000000602082015250565b6000614167602d836133ad565b91506141728261410b565b604082019050919050565b600060208201905081810360008301526141968161415a565b9050919050565b7f4552433732313a20696e76616c696420746f6b656e2049440000000000000000600082015250565b60006141d36018836133ad565b91506141de8261419d565b602082019050919050565b60006020820190508181036000830152614202816141c6565b9050919050565b7f4552433732313a2061646472657373207a65726f206973206e6f74206120766160008201527f6c6964206f776e65720000000000000000000000000000000000000000000000602082015250565b60006142656029836133ad565b915061427082614209565b604082019050919050565b6000602082019050818103600083015261429481614258565b9050919050565b600060608201905081810360008301526142b58186613402565b90506142c46020830185613700565b6142d16040830184613700565b949350505050565b7f4f6e6c79206d61726b6574706c616365206f776e65722063616e20757064617460008201527f65206c697374696e672070726963652e00000000000000000000000000000000602082015250565b60006143356030836133ad565b9150614340826142d9565b604082019050919050565b6000602082019050818103600083015261436481614328565b9050919050565b600060808201905081810360008301526143858187613402565b905081810360208301526143998186613402565b90506143a86040830185613700565b6143b560608301846134f2565b95945050505050565b7f506c65617365207375626d6974207468652061736b696e67207072696365206960008201527f6e206f7264657220746f20636f6d706c65746520746865207075726368617365602082015250565b600061441a6040836133ad565b9150614425826143be565b604082019050919050565b600060208201905081810360008301526144498161440d565b9050919050565b600060608201905061446560008301866134f2565b61447260208301856134f2565b61447f6040830184613700565b949350505050565b600081905092915050565b600061449d826133a2565b6144a78185614487565b93506144b78185602086016133be565b80840191505092915050565b60006144cf8285614492565b91506144db8284614492565b91508190509392505050565b7f4f6e6c79206974656d206f776e65722063616e20706572666f726d207468697360008201527f206f7065726174696f6e00000000000000000000000000000000000000000000602082015250565b6000614543602a836133ad565b915061454e826144e7565b604082019050919050565b6000602082019050818103600083015261457281614536565b9050919050565b7f5072696365206d75737420626520657175616c20746f206c697374696e67207060008201527f7269636500000000000000000000000000000000000000000000000000000000602082015250565b60006145d56024836133ad565b91506145e082614579565b604082019050919050565b60006020820190508181036000830152614604816145c8565b9050919050565b7f506c656173652070617920736f6d657468696e6720677265617465722074686160008201527f6e20300000000000000000000000000000000000000000000000000000000000602082015250565b60006146676023836133ad565b91506146728261460b565b604082019050919050565b600060208201905081810360008301526146968161465a565b9050919050565b7f4552433732313a207472616e736665722066726f6d20696e636f72726563742060008201527f6f776e6572000000000000000000000000000000000000000000000000000000602082015250565b60006146f96025836133ad565b91506147048261469d565b604082019050919050565b60006020820190508181036000830152614728816146ec565b9050919050565b7f4552433732313a207472616e7366657220746f20746865207a65726f2061646460008201527f7265737300000000000000000000000000000000000000000000000000000000602082015250565b600061478b6024836133ad565b91506147968261472f565b604082019050919050565b600060208201905081810360008301526147ba8161477e565b9050919050565b7f4552433732313a206d696e7420746f20746865207a65726f2061646472657373600082015250565b60006147f76020836133ad565b9150614802826147c1565b602082019050919050565b60006020820190508181036000830152614826816147ea565b9050919050565b7f4552433732313a20746f6b656e20616c7265616479206d696e74656400000000600082015250565b6000614863601c836133ad565b915061486e8261482d565b602082019050919050565b6000602082019050818103600083015261489281614856565b9050919050565b7f45524337323155524953746f726167653a2055524920736574206f66206e6f6e60008201527f6578697374656e7420746f6b656e000000000000000000000000000000000000602082015250565b60006148f5602e836133ad565b915061490082614899565b604082019050919050565b60006020820190508181036000830152614924816148e8565b9050919050565b7f5072696365206d757374206265206174206c6561737420312077656900000000600082015250565b6000614961601c836133ad565b915061496c8261492b565b602082019050919050565b6000602082019050818103600083015261499081614954565b9050919050565b60006080820190506149ac60008301876134f2565b6149b960208301866134f2565b6149c66040830185613700565b6149d36060830184613378565b95945050505050565b7f4552433732313a20617070726f766520746f2063616c6c657200000000000000600082015250565b6000614a126019836133ad565b9150614a1d826149dc565b602082019050919050565b60006020820190508181036000830152614a4181614a05565b9050919050565b7f4552433732313a207472616e7366657220746f206e6f6e20455243373231526560008201527f63656976657220696d706c656d656e7465720000000000000000000000000000602082015250565b6000614aa46032836133ad565b9150614aaf82614a48565b604082019050919050565b60006020820190508181036000830152614ad381614a97565b9050919050565b7f436f756e7465723a2064656372656d656e74206f766572666c6f770000000000600082015250565b6000614b10601b836133ad565b9150614b1b82614ada565b602082019050919050565b60006020820190508181036000830152614b3f81614b03565b9050919050565b600081519050919050565b600082825260208201905092915050565b6000614b6d82614b46565b614b778185614b51565b9350614b878185602086016133be565b614b90816133f1565b840191505092915050565b6000608082019050614bb060008301876134f2565b614bbd60208301866134f2565b614bca6040830185613700565b8181036060830152614bdc8184614b62565b905095945050505050565b600081519050614bf681613313565b92915050565b600060208284031215614c1257614c116132dd565b5b6000614c2084828501614be7565b91505092915050565b7f4e487b7100000000000000000000000000000000000000000000000000000000600052601260045260246000fdfea2646970667358221220e726db381452feb85fb192931a52701844a2e77364dcec18abe84262b33fa01364736f6c634300080a0033",
  "linkReferences": {},
  "deployedLinkReferences": {}
}