{
  "_format": "hh-sol-artifact-1",
  "contractName": "NFTMarketplace",
  "sourceName": "contracts/NFTMarketplace.sol",
  "abi": [
    {
      "inputs": [],
      "stateMutability": "nonpayable",
      "type": "constructor"
    },
    {
      "anonymous": false,
      "inputs": [
        {
          "indexed": true,
          "internalType": "address",
          "name": "owner",
          "type": "address"
        },
        {
          "indexed": true,
          "internalType": "address",
          "name": "approved",
          "type": "address"
        },
        {
          "indexed": true,
          "internalType": "uint256",
          "name": "tokenId",
          "type": "uint256"
        }
      ],
      "name": "Approval",
      "type": "event"
    },
    {
      "anonymous": false,
      "inputs": [
        {
          "indexed": true,
          "internalType": "address",
          "name": "owner",
          "type": "address"
        },
        {
          "indexed": true,
          "internalType": "address",
          "name": "operator",
          "type": "address"
        },
        {
          "indexed": false,
          "internalType": "bool",
          "name": "approved",
          "type": "bool"
        }
      ],
      "name": "ApprovalForAll",
      "type": "event"
    },
    {
      "anonymous": false,
      "inputs": [
        {
          "indexed": false,
          "internalType": "uint256",
          "name": "_fromTokenId",
          "type": "uint256"
        },
        {
          "indexed": false,
          "internalType": "uint256",
          "name": "_toTokenId",
          "type": "uint256"
        }
      ],
      "name": "BatchMetadataUpdate",
      "type": "event"
    },
    {
      "anonymous": false,
      "inputs": [
        {
          "indexed": false,
          "internalType": "string",
          "name": "name",
          "type": "string"
        },
        {
          "indexed": false,
          "internalType": "string",
          "name": "message",
          "type": "string"
        },
        {
          "indexed": false,
          "internalType": "uint256",
          "name": "timestamp",
          "type": "uint256"
        },
        {
          "indexed": false,
          "internalType": "address",
          "name": "buyer",
          "type": "address"
        },
        {
          "indexed": false,
          "internalType": "uint256",
          "name": "amount",
          "type": "uint256"
        }
      ],
      "name": "ChaiBought",
      "type": "event"
    },
    {
      "anonymous": false,
      "inputs": [
        {
          "indexed": true,
          "internalType": "address",
          "name": "from",
          "type": "address"
        },
        {
          "indexed": false,
          "internalType": "string",
          "name": "name",
          "type": "string"
        },
        {
          "indexed": false,
          "internalType": "string",
          "name": "message",
          "type": "string"
        },
        {
          "indexed": false,
          "internalType": "uint256",
          "name": "timestamp",
          "type": "uint256"
        },
        {
          "indexed": false,
          "internalType": "uint256",
          "name": "amount",
          "type": "uint256"
        }
      ],
      "name": "Donation",
      "type": "event"
    },
    {
      "anonymous": false,
      "inputs": [
        {
          "indexed": false,
          "internalType": "uint256",
          "name": "newPrice",
          "type": "uint256"
        }
      ],
      "name": "ListingPriceUpdated",
      "type": "event"
    },
    {
      "anonymous": false,
      "inputs": [
        {
          "indexed": true,
          "internalType": "uint256",
          "name": "tokenId",
          "type": "uint256"
        },
        {
          "indexed": false,
          "internalType": "address",
          "name": "seller",
          "type": "address"
        },
        {
          "indexed": false,
          "internalType": "address",
          "name": "owner",
          "type": "address"
        },
        {
          "indexed": false,
          "internalType": "uint256",
          "name": "price",
          "type": "uint256"
        },
        {
          "indexed": false,
          "internalType": "bool",
          "name": "sold",
          "type": "bool"
        }
      ],
      "name": "MarketItemCreated",
      "type": "event"
    },
    {
      "anonymous": false,
      "inputs": [
        {
          "indexed": true,
          "internalType": "uint256",
          "name": "tokenId",
          "type": "uint256"
        },
        {
          "indexed": false,
          "internalType": "address",
          "name": "buyer",
          "type": "address"
        },
        {
          "indexed": false,
          "internalType": "address",
          "name": "seller",
          "type": "address"
        },
        {
          "indexed": false,
          "internalType": "uint256",
          "name": "price",
          "type": "uint256"
        }
      ],
      "name": "MarketSale",
      "type": "event"
    },
    {
      "anonymous": false,
      "inputs": [
        {
          "indexed": false,
          "internalType": "uint256",
          "name": "_tokenId",
          "type": "uint256"
        }
      ],
      "name": "MetadataUpdate",
      "type": "event"
    },
    {
      "anonymous": false,
      "inputs": [
        {
          "indexed": false,
          "internalType": "string",
          "name": "tokenURI",
          "type": "string"
        },
        {
          "indexed": false,
          "internalType": "uint256",
          "name": "price",
          "type": "uint256"
        },
        {
          "indexed": false,
          "internalType": "uint256",
          "name": "newTokenId",
          "type": "uint256"
        }
      ],
      "name": "TokenItem",
      "type": "event"
    },
    {
      "anonymous": false,
      "inputs": [
        {
          "indexed": true,
          "internalType": "uint256",
          "name": "tokenId",
          "type": "uint256"
        },
        {
          "indexed": false,
          "internalType": "address",
          "name": "seller",
          "type": "address"
        },
        {
          "indexed": false,
          "internalType": "address",
          "name": "owner",
          "type": "address"
        },
        {
          "indexed": false,
          "internalType": "uint256",
          "name": "price",
          "type": "uint256"
        }
      ],
      "name": "TokenResold",
      "type": "event"
    },
    {
      "anonymous": false,
      "inputs": [
        {
          "indexed": true,
          "internalType": "address",
          "name": "from",
          "type": "address"
        },
        {
          "indexed": true,
          "internalType": "address",
          "name": "to",
          "type": "address"
        },
        {
          "indexed": true,
          "internalType": "uint256",
          "name": "tokenId",
          "type": "uint256"
        }
      ],
      "name": "Transfer",
      "type": "event"
    },
    {
      "anonymous": false,
      "inputs": [
        {
          "indexed": false,
          "internalType": "string",
          "name": "func",
          "type": "string"
        },
        {
          "indexed": false,
          "internalType": "string",
          "name": "txn",
          "type": "string"
        },
        {
          "indexed": false,
          "internalType": "uint256",
          "name": "timestamp",
          "type": "uint256"
        },
        {
          "indexed": false,
          "internalType": "address",
          "name": "buyer",
          "type": "address"
        }
      ],
      "name": "_updateData",
      "type": "event"
    },
    {
      "inputs": [],
      "name": "Rowner",
      "outputs": [
        {
          "internalType": "address payable",
          "name": "",
          "type": "address"
        }
      ],
      "stateMutability": "view",
      "type": "function"
    },
    {
      "inputs": [
        {
          "internalType": "address",
          "name": "to",
          "type": "address"
        },
        {
          "internalType": "uint256",
          "name": "tokenId",
          "type": "uint256"
        }
      ],
      "name": "approve",
      "outputs": [],
      "stateMutability": "nonpayable",
      "type": "function"
    },
    {
      "inputs": [
        {
          "internalType": "address",
          "name": "owner",
          "type": "address"
        }
      ],
      "name": "balanceOf",
      "outputs": [
        {
          "internalType": "uint256",
          "name": "",
          "type": "uint256"
        }
      ],
      "stateMutability": "view",
      "type": "function"
    },
    {
      "inputs": [
        {
          "internalType": "string",
          "name": "name",
          "type": "string"
        },
        {
          "internalType": "string",
          "name": "message",
          "type": "string"
        },
        {
          "internalType": "string",
          "name": "cid",
          "type": "string"
        }
      ],
      "name": "buyChai",
      "outputs": [],
      "stateMutability": "payable",
      "type": "function"
    },
    {
      "inputs": [
        {
          "internalType": "uint256",
          "name": "tokenId",
          "type": "uint256"
        }
      ],
      "name": "createMarketSale",
      "outputs": [],
      "stateMutability": "payable",
      "type": "function"
    },
    {
      "inputs": [
        {
          "internalType": "string",
          "name": "tokenURI",
          "type": "string"
        },
        {
          "internalType": "uint256",
          "name": "price",
          "type": "uint256"
        }
      ],
      "name": "createToken",
      "outputs": [
        {
          "internalType": "uint256",
          "name": "",
          "type": "uint256"
        }
      ],
      "stateMutability": "payable",
      "type": "function"
    },
    {
      "inputs": [],
      "name": "fetchItemsListed",
      "outputs": [
        {
          "components": [
            {
              "internalType": "uint256",
              "name": "tokenId",
              "type": "uint256"
            },
            {
              "internalType": "address payable",
              "name": "seller",
              "type": "address"
            },
            {
              "internalType": "address payable",
              "name": "owner",
              "type": "address"
            },
            {
              "internalType": "uint256",
              "name": "price",
              "type": "uint256"
            },
            {
              "internalType": "bool",
              "name": "sold",
              "type": "bool"
            }
          ],
          "internalType": "struct NFTMarketplace.MarketItem[]",
          "name": "",
          "type": "tuple[]"
        }
      ],
      "stateMutability": "view",
      "type": "function"
    },
    {
      "inputs": [],
      "name": "fetchMarketItems",
      "outputs": [
        {
          "components": [
            {
              "internalType": "uint256",
              "name": "tokenId",
              "type": "uint256"
            },
            {
              "internalType": "address payable",
              "name": "seller",
              "type": "address"
            },
            {
              "internalType": "address payable",
              "name": "owner",
              "type": "address"
            },
            {
              "internalType": "uint256",
              "name": "price",
              "type": "uint256"
            },
            {
              "internalType": "bool",
              "name": "sold",
              "type": "bool"
            }
          ],
          "internalType": "struct NFTMarketplace.MarketItem[]",
          "name": "",
          "type": "tuple[]"
        }
      ],
      "stateMutability": "view",
      "type": "function"
    },
    {
      "inputs": [],
      "name": "fetchMyNFTs",
      "outputs": [
        {
          "components": [
            {
              "internalType": "uint256",
              "name": "tokenId",
              "type": "uint256"
            },
            {
              "internalType": "address payable",
              "name": "seller",
              "type": "address"
            },
            {
              "internalType": "address payable",
              "name": "owner",
              "type": "address"
            },
            {
              "internalType": "uint256",
              "name": "price",
              "type": "uint256"
            },
            {
              "internalType": "bool",
              "name": "sold",
              "type": "bool"
            }
          ],
          "internalType": "struct NFTMarketplace.MarketItem[]",
          "name": "",
          "type": "tuple[]"
        }
      ],
      "stateMutability": "view",
      "type": "function"
    },
    {
      "inputs": [
        {
          "internalType": "uint256",
          "name": "tokenId",
          "type": "uint256"
        }
      ],
      "name": "getApproved",
      "outputs": [
        {
          "internalType": "address",
          "name": "",
          "type": "address"
        }
      ],
      "stateMutability": "view",
      "type": "function"
    },
    {
      "inputs": [],
      "name": "getBalance",
      "outputs": [
        {
          "internalType": "uint256",
          "name": "",
          "type": "uint256"
        }
      ],
      "stateMutability": "view",
      "type": "function"
    },
    {
      "inputs": [],
      "name": "getListingPrice",
      "outputs": [
        {
          "internalType": "uint256",
          "name": "",
          "type": "uint256"
        }
      ],
      "stateMutability": "view",
      "type": "function"
    },
    {
      "inputs": [],
      "name": "getMemos",
      "outputs": [
        {
          "components": [
            {
              "internalType": "string",
              "name": "name",
              "type": "string"
            },
            {
              "internalType": "string",
              "name": "message",
              "type": "string"
            },
            {
              "internalType": "string",
              "name": "cid",
              "type": "string"
            },
            {
              "internalType": "uint256",
              "name": "timestamp",
              "type": "uint256"
            },
            {
              "internalType": "address",
              "name": "from",
              "type": "address"
            }
          ],
          "internalType": "struct NFTMarketplace.Memo[]",
          "name": "",
          "type": "tuple[]"
        }
      ],
      "stateMutability": "view",
      "type": "function"
    },
    {
      "inputs": [
        {
          "internalType": "address",
          "name": "owner",
          "type": "address"
        },
        {
          "internalType": "address",
          "name": "operator",
          "type": "address"
        }
      ],
      "name": "isApprovedForAll",
      "outputs": [
        {
          "internalType": "bool",
          "name": "",
          "type": "bool"
        }
      ],
      "stateMutability": "view",
      "type": "function"
    },
    {
      "inputs": [],
      "name": "name",
      "outputs": [
        {
          "internalType": "string",
          "name": "",
          "type": "string"
        }
      ],
      "stateMutability": "view",
      "type": "function"
    },
    {
      "inputs": [
        {
          "internalType": "uint256",
          "name": "tokenId",
          "type": "uint256"
        }
      ],
      "name": "ownerOf",
      "outputs": [
        {
          "internalType": "address",
          "name": "",
          "type": "address"
        }
      ],
      "stateMutability": "view",
      "type": "function"
    },
    {
      "inputs": [
        {
          "internalType": "uint256",
          "name": "tokenId",
          "type": "uint256"
        },
        {
          "internalType": "uint256",
          "name": "price",
          "type": "uint256"
        }
      ],
      "name": "resellToken",
      "outputs": [],
      "stateMutability": "payable",
      "type": "function"
    },
    {
      "inputs": [
        {
          "internalType": "address",
          "name": "from",
          "type": "address"
        },
        {
          "internalType": "address",
          "name": "to",
          "type": "address"
        },
        {
          "internalType": "uint256",
          "name": "tokenId",
          "type": "uint256"
        }
      ],
      "name": "safeTransferFrom",
      "outputs": [],
      "stateMutability": "nonpayable",
      "type": "function"
    },
    {
      "inputs": [
        {
          "internalType": "address",
          "name": "from",
          "type": "address"
        },
        {
          "internalType": "address",
          "name": "to",
          "type": "address"
        },
        {
          "internalType": "uint256",
          "name": "tokenId",
          "type": "uint256"
        },
        {
          "internalType": "bytes",
          "name": "data",
          "type": "bytes"
        }
      ],
      "name": "safeTransferFrom",
      "outputs": [],
      "stateMutability": "nonpayable",
      "type": "function"
    },
    {
      "inputs": [
        {
          "internalType": "address",
          "name": "operator",
          "type": "address"
        },
        {
          "internalType": "bool",
          "name": "approved",
          "type": "bool"
        }
      ],
      "name": "setApprovalForAll",
      "outputs": [],
      "stateMutability": "nonpayable",
      "type": "function"
    },
    {
      "inputs": [
        {
          "internalType": "bytes4",
          "name": "interfaceId",
          "type": "bytes4"
        }
      ],
      "name": "supportsInterface",
      "outputs": [
        {
          "internalType": "bool",
          "name": "",
          "type": "bool"
        }
      ],
      "stateMutability": "view",
      "type": "function"
    },
    {
      "inputs": [],
      "name": "symbol",
      "outputs": [
        {
          "internalType": "string",
          "name": "",
          "type": "string"
        }
      ],
      "stateMutability": "view",
      "type": "function"
    },
    {
      "inputs": [
        {
          "internalType": "uint256",
          "name": "tokenId",
          "type": "uint256"
        }
      ],
      "name": "tokenURI",
      "outputs": [
        {
          "internalType": "string",
          "name": "",
          "type": "string"
        }
      ],
      "stateMutability": "view",
      "type": "function"
    },
    {
      "inputs": [
        {
          "internalType": "address",
          "name": "from",
          "type": "address"
        },
        {
          "internalType": "address",
          "name": "to",
          "type": "address"
        },
        {
          "internalType": "uint256",
          "name": "tokenId",
          "type": "uint256"
        }
      ],
      "name": "transferFrom",
      "outputs": [],
      "stateMutability": "nonpayable",
      "type": "function"
    },
    {
      "inputs": [
        {
          "internalType": "string",
          "name": "func",
          "type": "string"
        },
        {
          "internalType": "string",
          "name": "txn",
          "type": "string"
        }
      ],
      "name": "updateData",
      "outputs": [],
      "stateMutability": "nonpayable",
      "type": "function"
    },
    {
      "inputs": [
        {
          "internalType": "uint256",
          "name": "_listingPrice",
          "type": "uint256"
        }
      ],
      "name": "updateListingPrice",
      "outputs": [],
      "stateMutability": "payable",
      "type": "function"
    }
  ],
  "bytecode": "0x60806040526658d15e17628000600a553480156200001c57600080fd5b506040518060400160405280601081526020017f4d657461766572736520546f6b656e73000000000000000000000000000000008152506040518060400160405280600481526020017f4d455454000000000000000000000000000000000000000000000000000000008152508160009080519060200190620000a192919062000145565b508060019080519060200190620000ba92919062000145565b50505033600e60006101000a81548173ffffffffffffffffffffffffffffffffffffffff021916908373ffffffffffffffffffffffffffffffffffffffff16021790555033600b60006101000a81548173ffffffffffffffffffffffffffffffffffffffff021916908373ffffffffffffffffffffffffffffffffffffffff1602179055506200025a565b828054620001539062000224565b90600052602060002090601f016020900481019282620001775760008555620001c3565b82601f106200019257805160ff1916838001178555620001c3565b82800160010185558215620001c3579182015b82811115620001c2578251825591602001919060010190620001a5565b5b509050620001d29190620001d6565b5090565b5b80821115620001f1576000816000905550600101620001d7565b5090565b7f4e487b7100000000000000000000000000000000000000000000000000000000600052602260045260246000fd5b600060028204905060018216806200023d57607f821691505b60208210811415620002545762000253620001f5565b5b50919050565b614d35806200026a6000396000f3fe6080604052600436106101815760003560e01c806372b3b620116100d1578063b88d4fde1161008a578063c87b56dd11610064578063c87b56dd1461055b578063e219fc7514610598578063e2ede73d146105b4578063e985e9c5146105d057610181565b8063b88d4fde146104ed578063bddbb02314610516578063be9af5361461053f57610181565b806372b3b620146103f7578063865c51721461042757806395d89b4114610452578063a0d180451461047d578063a22cb465146104a8578063ae677aa3146104d157610181565b806312e855851161013e57806342842e0e1161011857806342842e0e1461032957806345f8fa80146103525780636352211e1461037d57806370a08231146103ba57610181565b806312e85585146102aa578063202e3740146102d557806323b872dd1461030057610181565b806301ffc9a71461018657806306fdde03146101c3578063081812fc146101ee578063095ea7b31461022b5780630f08efe01461025457806312065fe01461027f575b600080fd5b34801561019257600080fd5b506101ad60048036038101906101a89190613393565b61060d565b6040516101ba91906133db565b60405180910390f35b3480156101cf57600080fd5b506101d861066e565b6040516101e5919061348f565b60405180910390f35b3480156101fa57600080fd5b50610215600480360381019061021091906134e7565b610700565b6040516102229190613555565b60405180910390f35b34801561023757600080fd5b50610252600480360381019061024d919061359c565b610746565b005b34801561026057600080fd5b5061026961085e565b6040516102769190613732565b60405180910390f35b34801561028b57600080fd5b50610294610ac7565b6040516102a19190613763565b60405180910390f35b3480156102b657600080fd5b506102bf610b08565b6040516102cc9190613763565b60405180910390f35b3480156102e157600080fd5b506102ea610b12565b6040516102f79190613732565b60405180910390f35b34801561030c57600080fd5b506103276004803603810190610322919061377e565b610e00565b005b34801561033557600080fd5b50610350600480360381019061034b919061377e565b610e60565b005b34801561035e57600080fd5b50610367610e80565b6040516103749190613732565b60405180910390f35b34801561038957600080fd5b506103a4600480360381019061039f91906134e7565b61116e565b6040516103b19190613555565b60405180910390f35b3480156103c657600080fd5b506103e160048036038101906103dc91906137d1565b6111f5565b6040516103ee9190613763565b60405180910390f35b610411600480360381019061040c9190613933565b6112ad565b60405161041e9190613763565b60405180910390f35b34801561043357600080fd5b5061043c61132a565b6040516104499190613b2e565b60405180910390f35b34801561045e57600080fd5b5061046761159f565b604051610474919061348f565b60405180910390f35b34801561048957600080fd5b50610492611631565b60405161049f9190613b5f565b60405180910390f35b3480156104b457600080fd5b506104cf60048036038101906104ca9190613ba6565b611657565b005b6104eb60048036038101906104e691906134e7565b61166d565b005b3480156104f957600080fd5b50610514600480360381019061050f9190613c87565b611740565b005b34801561052257600080fd5b5061053d60048036038101906105389190613d0a565b6117a2565b005b610559600480360381019061055491906134e7565b6117e3565b005b34801561056757600080fd5b50610582600480360381019061057d91906134e7565b611a5d565b60405161058f919061348f565b60405180910390f35b6105b260048036038101906105ad9190613d82565b611b70565b005b6105ce60048036038101906105c99190613dc2565b611da1565b005b3480156105dc57600080fd5b506105f760048036038101906105f29190613e69565b611fb8565b60405161060491906133db565b60405180910390f35b6000634906490660e01b7bffffffffffffffffffffffffffffffffffffffffffffffffffffffff1916827bffffffffffffffffffffffffffffffffffffffffffffffffffffffff1916148061066757506106668261204c565b5b9050919050565b60606000805461067d90613ed8565b80601f01602080910402602001604051908101604052809291908181526020018280546106a990613ed8565b80156106f65780601f106106cb576101008083540402835291602001916106f6565b820191906000526020600020905b8154815290600101906020018083116106d957829003601f168201915b5050505050905090565b600061070b8261212e565b6004600083815260200190815260200160002060009054906101000a900473ffffffffffffffffffffffffffffffffffffffff169050919050565b60006107518261116e565b90508073ffffffffffffffffffffffffffffffffffffffff168373ffffffffffffffffffffffffffffffffffffffff1614156107c2576040517f08c379a00000000000000000000000000000000000000000000000000000000081526004016107b990613f7c565b60405180910390fd5b8073ffffffffffffffffffffffffffffffffffffffff166107e1612179565b73ffffffffffffffffffffffffffffffffffffffff161480610810575061080f8161080a612179565b611fb8565b5b61084f576040517f08c379a00000000000000000000000000000000000000000000000000000000081526004016108469061400e565b60405180910390fd5b6108598383612181565b505050565b6060600061086c600761223a565b9050600061087a600861223a565b610884600761223a565b61088e919061405d565b90506000808267ffffffffffffffff8111156108ad576108ac613808565b5b6040519080825280602002602001820160405280156108e657816020015b6108d3613227565b8152602001906001900390816108cb5790505b50905060005b84811015610abc573073ffffffffffffffffffffffffffffffffffffffff16600c600060018461091c9190614091565b815260200190815260200160002060020160009054906101000a900473ffffffffffffffffffffffffffffffffffffffff1673ffffffffffffffffffffffffffffffffffffffff161415610aa95760006001826109799190614091565b90506000600c60008381526020019081526020016000209050806040518060a0016040529081600082015481526020016001820160009054906101000a900473ffffffffffffffffffffffffffffffffffffffff1673ffffffffffffffffffffffffffffffffffffffff1673ffffffffffffffffffffffffffffffffffffffff1681526020016002820160009054906101000a900473ffffffffffffffffffffffffffffffffffffffff1673ffffffffffffffffffffffffffffffffffffffff1673ffffffffffffffffffffffffffffffffffffffff168152602001600382015481526020016004820160009054906101000a900460ff161515151581525050848681518110610a8c57610a8b6140e7565b5b6020026020010181905250600185610aa49190614091565b945050505b8080610ab490614116565b9150506108ec565b508094505050505090565b6000600e60009054906101000a900473ffffffffffffffffffffffffffffffffffffffff1673ffffffffffffffffffffffffffffffffffffffff1631905090565b6000600a54905090565b60606000610b20600761223a565b905060008060005b83811015610bc9573373ffffffffffffffffffffffffffffffffffffffff16600c6000600184610b589190614091565b815260200190815260200160002060020160009054906101000a900473ffffffffffffffffffffffffffffffffffffffff1673ffffffffffffffffffffffffffffffffffffffff161415610bb657600183610bb39190614091565b92505b8080610bc190614116565b915050610b28565b5060008267ffffffffffffffff811115610be657610be5613808565b5b604051908082528060200260200182016040528015610c1f57816020015b610c0c613227565b815260200190600190039081610c045790505b50905060005b84811015610df5573373ffffffffffffffffffffffffffffffffffffffff16600c6000600184610c559190614091565b815260200190815260200160002060020160009054906101000a900473ffffffffffffffffffffffffffffffffffffffff1673ffffffffffffffffffffffffffffffffffffffff161415610de2576000600182610cb29190614091565b90506000600c60008381526020019081526020016000209050806040518060a0016040529081600082015481526020016001820160009054906101000a900473ffffffffffffffffffffffffffffffffffffffff1673ffffffffffffffffffffffffffffffffffffffff1673ffffffffffffffffffffffffffffffffffffffff1681526020016002820160009054906101000a900473ffffffffffffffffffffffffffffffffffffffff1673ffffffffffffffffffffffffffffffffffffffff1673ffffffffffffffffffffffffffffffffffffffff168152602001600382015481526020016004820160009054906101000a900460ff161515151581525050848681518110610dc557610dc46140e7565b5b6020026020010181905250600185610ddd9190614091565b945050505b8080610ded90614116565b915050610c25565b508094505050505090565b610e11610e0b612179565b82612248565b610e50576040517f08c379a0000000000000000000000000000000000000000000000000000000008152600401610e47906141d1565b60405180910390fd5b610e5b8383836122dd565b505050565b610e7b83838360405180602001604052806000815250611740565b505050565b60606000610e8e600761223a565b905060008060005b83811015610f37573373ffffffffffffffffffffffffffffffffffffffff16600c6000600184610ec69190614091565b815260200190815260200160002060010160009054906101000a900473ffffffffffffffffffffffffffffffffffffffff1673ffffffffffffffffffffffffffffffffffffffff161415610f2457600183610f219190614091565b92505b8080610f2f90614116565b915050610e96565b5060008267ffffffffffffffff811115610f5457610f53613808565b5b604051908082528060200260200182016040528015610f8d57816020015b610f7a613227565b815260200190600190039081610f725790505b50905060005b84811015611163573373ffffffffffffffffffffffffffffffffffffffff16600c6000600184610fc39190614091565b815260200190815260200160002060010160009054906101000a900473ffffffffffffffffffffffffffffffffffffffff1673ffffffffffffffffffffffffffffffffffffffff1614156111505760006001826110209190614091565b90506000600c60008381526020019081526020016000209050806040518060a0016040529081600082015481526020016001820160009054906101000a900473ffffffffffffffffffffffffffffffffffffffff1673ffffffffffffffffffffffffffffffffffffffff1673ffffffffffffffffffffffffffffffffffffffff1681526020016002820160009054906101000a900473ffffffffffffffffffffffffffffffffffffffff1673ffffffffffffffffffffffffffffffffffffffff1673ffffffffffffffffffffffffffffffffffffffff168152602001600382015481526020016004820160009054906101000a900460ff161515151581525050848681518110611133576111326140e7565b5b602002602001018190525060018561114b9190614091565b945050505b808061115b90614116565b915050610f93565b508094505050505090565b60008061117a836125d7565b9050600073ffffffffffffffffffffffffffffffffffffffff168173ffffffffffffffffffffffffffffffffffffffff1614156111ec576040517f08c379a00000000000000000000000000000000000000000000000000000000081526004016111e39061423d565b60405180910390fd5b80915050919050565b60008073ffffffffffffffffffffffffffffffffffffffff168273ffffffffffffffffffffffffffffffffffffffff161415611266576040517f08c379a000000000000000000000000000000000000000000000000000000000815260040161125d906142cf565b60405180910390fd5b600360008373ffffffffffffffffffffffffffffffffffffffff1673ffffffffffffffffffffffffffffffffffffffff168152602001908152602001600020549050919050565b60006112b96007612614565b60006112c5600761223a565b90506112d1338261262a565b6112db8185612848565b6112e581846128f3565b7f147651284223d3ef52595d290770d56fe223d47d9ffb078cb90d5ddd6827a00d848483604051611318939291906142ef565b60405180910390a18091505092915050565b6060600d805480602002602001604051908101604052809291908181526020016000905b8282101561159657838290600052602060002090600502016040518060a001604052908160008201805461138190613ed8565b80601f01602080910402602001604051908101604052809291908181526020018280546113ad90613ed8565b80156113fa5780601f106113cf576101008083540402835291602001916113fa565b820191906000526020600020905b8154815290600101906020018083116113dd57829003601f168201915b5050505050815260200160018201805461141390613ed8565b80601f016020809104026020016040519081016040528092919081815260200182805461143f90613ed8565b801561148c5780601f106114615761010080835404028352916020019161148c565b820191906000526020600020905b81548152906001019060200180831161146f57829003601f168201915b505050505081526020016002820180546114a590613ed8565b80601f01602080910402602001604051908101604052809291908181526020018280546114d190613ed8565b801561151e5780601f106114f35761010080835404028352916020019161151e565b820191906000526020600020905b81548152906001019060200180831161150157829003601f168201915b50505050508152602001600382015481526020016004820160009054906101000a900473ffffffffffffffffffffffffffffffffffffffff1673ffffffffffffffffffffffffffffffffffffffff1673ffffffffffffffffffffffffffffffffffffffff16815250508152602001906001019061134e565b50505050905090565b6060600180546115ae90613ed8565b80601f01602080910402602001604051908101604052809291908181526020018280546115da90613ed8565b80156116275780601f106115fc57610100808354040283529160200191611627565b820191906000526020600020905b81548152906001019060200180831161160a57829003601f168201915b5050505050905090565b600e60009054906101000a900473ffffffffffffffffffffffffffffffffffffffff1681565b611669611662612179565b8383612af6565b5050565b3373ffffffffffffffffffffffffffffffffffffffff16600b60009054906101000a900473ffffffffffffffffffffffffffffffffffffffff1673ffffffffffffffffffffffffffffffffffffffff16146116fd576040517f08c379a00000000000000000000000000000000000000000000000000000000081526004016116f49061439f565b60405180910390fd5b80600a819055507f661c8d2e494b21e778d6b19ffb42ca00ee63062be7f9eb28af0850e01a9cf214600a546040516117359190613763565b60405180910390a150565b61175161174b612179565b83612248565b611790576040517f08c379a0000000000000000000000000000000000000000000000000000000008152600401611787906141d1565b60405180910390fd5b61179c84848484612c63565b50505050565b7fef7a241cc9241124a3a3e7260df9cc37f05108c0a0bd61fc0329156285a7dd6c828242336040516117d794939291906143bf565b60405180910390a15050565b6000600c60008381526020019081526020016000206003015490506000600c600084815260200190815260200160002060010160009054906101000a900473ffffffffffffffffffffffffffffffffffffffff16905081341461187b576040517f08c379a000000000000000000000000000000000000000000000000000000000815260040161187290614484565b60405180910390fd5b33600c600085815260200190815260200160002060020160006101000a81548173ffffffffffffffffffffffffffffffffffffffff021916908373ffffffffffffffffffffffffffffffffffffffff1602179055506001600c600085815260200190815260200160002060040160006101000a81548160ff0219169083151502179055506000600c600085815260200190815260200160002060010160006101000a81548173ffffffffffffffffffffffffffffffffffffffff021916908373ffffffffffffffffffffffffffffffffffffffff16021790555061195f6008612614565b61196a3033856122dd565b600b60009054906101000a900473ffffffffffffffffffffffffffffffffffffffff1673ffffffffffffffffffffffffffffffffffffffff166108fc600a549081150290604051600060405180830381858888f193505050501580156119d4573d6000803e3d6000fd5b508073ffffffffffffffffffffffffffffffffffffffff166108fc349081150290604051600060405180830381858888f19350505050158015611a1b573d6000803e3d6000fd5b50827f92702ca16506c19534081722898e3d74348202feb9cec071d74fc908c67dd03e338385604051611a50939291906144a4565b60405180910390a2505050565b6060611a688261212e565b6000600660008481526020019081526020016000208054611a8890613ed8565b80601f0160208091040260200160405190810160405280929190818152602001828054611ab490613ed8565b8015611b015780601f10611ad657610100808354040283529160200191611b01565b820191906000526020600020905b815481529060010190602001808311611ae457829003601f168201915b505050505090506000611b12612cbf565b9050600081511415611b28578192505050611b6b565b600082511115611b5d578082604051602001611b45929190614517565b60405160208183030381529060405292505050611b6b565b611b6684612cd6565b925050505b919050565b3373ffffffffffffffffffffffffffffffffffffffff16600c600084815260200190815260200160002060020160009054906101000a900473ffffffffffffffffffffffffffffffffffffffff1673ffffffffffffffffffffffffffffffffffffffff1614611c14576040517f08c379a0000000000000000000000000000000000000000000000000000000008152600401611c0b906145ad565b60405180910390fd5b600a543414611c58576040517f08c379a0000000000000000000000000000000000000000000000000000000008152600401611c4f9061463f565b60405180910390fd5b6000600c600084815260200190815260200160002060040160006101000a81548160ff02191690831515021790555080600c60008481526020019081526020016000206003018190555033600c600084815260200190815260200160002060010160006101000a81548173ffffffffffffffffffffffffffffffffffffffff021916908373ffffffffffffffffffffffffffffffffffffffff16021790555030600c600084815260200190815260200160002060020160006101000a81548173ffffffffffffffffffffffffffffffffffffffff021916908373ffffffffffffffffffffffffffffffffffffffff160217905550611d566008612d3e565b611d613330846122dd565b817fc6b0d13d6c1af02bfe5761531c93b25f6078fbae63c013f2afb85a0a42ffc1f3333084604051611d95939291906144a4565b60405180910390a25050565b60003411611de4576040517f08c379a0000000000000000000000000000000000000000000000000000000008152600401611ddb906146d1565b60405180910390fd5b600e60009054906101000a900473ffffffffffffffffffffffffffffffffffffffff1673ffffffffffffffffffffffffffffffffffffffff166108fc349081150290604051600060405180830381858888f19350505050158015611e4c573d6000803e3d6000fd5b50600d6040518060a001604052808581526020018481526020018381526020014281526020013373ffffffffffffffffffffffffffffffffffffffff1681525090806001815401808255809150506001900390600052602060002090600502016000909190919091506000820151816000019080519060200190611ed1929190613284565b506020820151816001019080519060200190611eee929190613284565b506040820151816002019080519060200190611f0b929190613284565b506060820151816003015560808201518160040160006101000a81548173ffffffffffffffffffffffffffffffffffffffff021916908373ffffffffffffffffffffffffffffffffffffffff16021790555050503373ffffffffffffffffffffffffffffffffffffffff167fdd10e0ac7ff4472e4e130e66c1b79a146ea2f69e23abeb3c96097d9066eaa20484844234604051611fab94939291906146f1565b60405180910390a2505050565b6000600560008473ffffffffffffffffffffffffffffffffffffffff1673ffffffffffffffffffffffffffffffffffffffff16815260200190815260200160002060008373ffffffffffffffffffffffffffffffffffffffff1673ffffffffffffffffffffffffffffffffffffffff16815260200190815260200160002060009054906101000a900460ff16905092915050565b60007f80ac58cd000000000000000000000000000000000000000000000000000000007bffffffffffffffffffffffffffffffffffffffffffffffffffffffff1916827bffffffffffffffffffffffffffffffffffffffffffffffffffffffff1916148061211757507f5b5e139f000000000000000000000000000000000000000000000000000000007bffffffffffffffffffffffffffffffffffffffffffffffffffffffff1916827bffffffffffffffffffffffffffffffffffffffffffffffffffffffff1916145b80612127575061212682612d9a565b5b9050919050565b61213781612e04565b612176576040517f08c379a000000000000000000000000000000000000000000000000000000000815260040161216d9061423d565b60405180910390fd5b50565b600033905090565b816004600083815260200190815260200160002060006101000a81548173ffffffffffffffffffffffffffffffffffffffff021916908373ffffffffffffffffffffffffffffffffffffffff160217905550808273ffffffffffffffffffffffffffffffffffffffff166121f48361116e565b73ffffffffffffffffffffffffffffffffffffffff167f8c5be1e5ebec7d5bd14f71427d1e84f3dd0314c0f7b2291e5b200ac8c7c3b92560405160405180910390a45050565b600081600001549050919050565b6000806122548361116e565b90508073ffffffffffffffffffffffffffffffffffffffff168473ffffffffffffffffffffffffffffffffffffffff16148061229657506122958185611fb8565b5b806122d457508373ffffffffffffffffffffffffffffffffffffffff166122bc84610700565b73ffffffffffffffffffffffffffffffffffffffff16145b91505092915050565b8273ffffffffffffffffffffffffffffffffffffffff166122fd8261116e565b73ffffffffffffffffffffffffffffffffffffffff1614612353576040517f08c379a000000000000000000000000000000000000000000000000000000000815260040161234a906147b6565b60405180910390fd5b600073ffffffffffffffffffffffffffffffffffffffff168273ffffffffffffffffffffffffffffffffffffffff1614156123c3576040517f08c379a00000000000000000000000000000000000000000000000000000000081526004016123ba90614848565b60405180910390fd5b6123d08383836001612e45565b8273ffffffffffffffffffffffffffffffffffffffff166123f08261116e565b73ffffffffffffffffffffffffffffffffffffffff1614612446576040517f08c379a000000000000000000000000000000000000000000000000000000000815260040161243d906147b6565b60405180910390fd5b6004600082815260200190815260200160002060006101000a81549073ffffffffffffffffffffffffffffffffffffffff02191690556001600360008573ffffffffffffffffffffffffffffffffffffffff1673ffffffffffffffffffffffffffffffffffffffff168152602001908152602001600020600082825403925050819055506001600360008473ffffffffffffffffffffffffffffffffffffffff1673ffffffffffffffffffffffffffffffffffffffff16815260200190815260200160002060008282540192505081905550816002600083815260200190815260200160002060006101000a81548173ffffffffffffffffffffffffffffffffffffffff021916908373ffffffffffffffffffffffffffffffffffffffff160217905550808273ffffffffffffffffffffffffffffffffffffffff168473ffffffffffffffffffffffffffffffffffffffff167fddf252ad1be2c89b69c2b068fc378daa952ba7f163c4a11628f55a4df523b3ef60405160405180910390a46125d28383836001612e4b565b505050565b60006002600083815260200190815260200160002060009054906101000a900473ffffffffffffffffffffffffffffffffffffffff169050919050565b6001816000016000828254019250508190555050565b600073ffffffffffffffffffffffffffffffffffffffff168273ffffffffffffffffffffffffffffffffffffffff16141561269a576040517f08c379a0000000000000000000000000000000000000000000000000000000008152600401612691906148b4565b60405180910390fd5b6126a381612e04565b156126e3576040517f08c379a00000000000000000000000000000000000000000000000000000000081526004016126da90614920565b60405180910390fd5b6126f1600083836001612e45565b6126fa81612e04565b1561273a576040517f08c379a000000000000000000000000000000000000000000000000000000000815260040161273190614920565b60405180910390fd5b6001600360008473ffffffffffffffffffffffffffffffffffffffff1673ffffffffffffffffffffffffffffffffffffffff16815260200190815260200160002060008282540192505081905550816002600083815260200190815260200160002060006101000a81548173ffffffffffffffffffffffffffffffffffffffff021916908373ffffffffffffffffffffffffffffffffffffffff160217905550808273ffffffffffffffffffffffffffffffffffffffff16600073ffffffffffffffffffffffffffffffffffffffff167fddf252ad1be2c89b69c2b068fc378daa952ba7f163c4a11628f55a4df523b3ef60405160405180910390a4612844600083836001612e4b565b5050565b61285182612e04565b612890576040517f08c379a0000000000000000000000000000000000000000000000000000000008152600401612887906149b2565b60405180910390fd5b806006600084815260200190815260200160002090805190602001906128b7929190613284565b507ff8e1a15aba9398e019f0b49df1a4fde98ee17ae345cb5f6b5e2c27f5033e8ce7826040516128e79190613763565b60405180910390a15050565b60008111612936576040517f08c379a000000000000000000000000000000000000000000000000000000000815260040161292d90614a1e565b60405180910390fd5b600a54341461297a576040517f08c379a00000000000000000000000000000000000000000000000000000000081526004016129719061463f565b60405180910390fd5b6040518060a001604052808381526020013373ffffffffffffffffffffffffffffffffffffffff1681526020013073ffffffffffffffffffffffffffffffffffffffff16815260200182815260200160001515815250600c60008481526020019081526020016000206000820151816000015560208201518160010160006101000a81548173ffffffffffffffffffffffffffffffffffffffff021916908373ffffffffffffffffffffffffffffffffffffffff16021790555060408201518160020160006101000a81548173ffffffffffffffffffffffffffffffffffffffff021916908373ffffffffffffffffffffffffffffffffffffffff1602179055506060820151816003015560808201518160040160006101000a81548160ff021916908315150217905550905050612ab33330846122dd565b817fb640004f1d14576d0c209e240cad0410e0d8c0c33a09375861fbadae2588a98d3330846000604051612aea9493929190614a3e565b60405180910390a25050565b8173ffffffffffffffffffffffffffffffffffffffff168373ffffffffffffffffffffffffffffffffffffffff161415612b65576040517f08c379a0000000000000000000000000000000000000000000000000000000008152600401612b5c90614acf565b60405180910390fd5b80600560008573ffffffffffffffffffffffffffffffffffffffff1673ffffffffffffffffffffffffffffffffffffffff16815260200190815260200160002060008473ffffffffffffffffffffffffffffffffffffffff1673ffffffffffffffffffffffffffffffffffffffff16815260200190815260200160002060006101000a81548160ff0219169083151502179055508173ffffffffffffffffffffffffffffffffffffffff168373ffffffffffffffffffffffffffffffffffffffff167f17307eab39ab6107e8899845ad3d59bd9653f200f220920489ca2b5937696c3183604051612c5691906133db565b60405180910390a3505050565b612c6e8484846122dd565b612c7a84848484612e51565b612cb9576040517f08c379a0000000000000000000000000000000000000000000000000000000008152600401612cb090614b61565b60405180910390fd5b50505050565b606060405180602001604052806000815250905090565b6060612ce18261212e565b6000612ceb612cbf565b90506000815111612d0b5760405180602001604052806000815250612d36565b80612d1584612fd9565b604051602001612d26929190614517565b6040516020818303038152906040525b915050919050565b60008160000154905060008111612d8a576040517f08c379a0000000000000000000000000000000000000000000000000000000008152600401612d8190614bcd565b60405180910390fd5b6001810382600001819055505050565b60007f01ffc9a7000000000000000000000000000000000000000000000000000000007bffffffffffffffffffffffffffffffffffffffffffffffffffffffff1916827bffffffffffffffffffffffffffffffffffffffffffffffffffffffff1916149050919050565b60008073ffffffffffffffffffffffffffffffffffffffff16612e26836125d7565b73ffffffffffffffffffffffffffffffffffffffff1614159050919050565b50505050565b50505050565b6000612e728473ffffffffffffffffffffffffffffffffffffffff166130b1565b15612fcc578373ffffffffffffffffffffffffffffffffffffffff1663150b7a02612e9b612179565b8786866040518563ffffffff1660e01b8152600401612ebd9493929190614c42565b6020604051808303816000875af1925050508015612ef957506040513d601f19601f82011682018060405250810190612ef69190614ca3565b60015b612f7c573d8060008114612f29576040519150601f19603f3d011682016040523d82523d6000602084013e612f2e565b606091505b50600081511415612f74576040517f08c379a0000000000000000000000000000000000000000000000000000000008152600401612f6b90614b61565b60405180910390fd5b805181602001fd5b63150b7a0260e01b7bffffffffffffffffffffffffffffffffffffffffffffffffffffffff1916817bffffffffffffffffffffffffffffffffffffffffffffffffffffffff191614915050612fd1565b600190505b949350505050565b606060006001612fe8846130d4565b01905060008167ffffffffffffffff81111561300757613006613808565b5b6040519080825280601f01601f1916602001820160405280156130395781602001600182028036833780820191505090505b509050600082602001820190505b6001156130a6578080600190039150507f3031323334353637383961626364656600000000000000000000000000000000600a86061a8153600a85816130905761308f614cd0565b5b04945060008514156130a1576130a6565b613047565b819350505050919050565b6000808273ffffffffffffffffffffffffffffffffffffffff163b119050919050565b600080600090507a184f03e93ff9f4daa797ed6e38ed64bf6a1f0100000000000000008310613132577a184f03e93ff9f4daa797ed6e38ed64bf6a1f010000000000000000838161312857613127614cd0565b5b0492506040810190505b6d04ee2d6d415b85acef8100000000831061316f576d04ee2d6d415b85acef8100000000838161316557613164614cd0565b5b0492506020810190505b662386f26fc10000831061319e57662386f26fc10000838161319457613193614cd0565b5b0492506010810190505b6305f5e10083106131c7576305f5e10083816131bd576131bc614cd0565b5b0492506008810190505b61271083106131ec5761271083816131e2576131e1614cd0565b5b0492506004810190505b6064831061320f576064838161320557613204614cd0565b5b0492506002810190505b600a831061321e576001810190505b80915050919050565b6040518060a0016040528060008152602001600073ffffffffffffffffffffffffffffffffffffffff168152602001600073ffffffffffffffffffffffffffffffffffffffff168152602001600081526020016000151581525090565b82805461329090613ed8565b90600052602060002090601f0160209004810192826132b257600085556132f9565b82601f106132cb57805160ff19168380011785556132f9565b828001600101855582156132f9579182015b828111156132f85782518255916020019190600101906132dd565b5b509050613306919061330a565b5090565b5b8082111561332357600081600090555060010161330b565b5090565b6000604051905090565b600080fd5b600080fd5b60007fffffffff0000000000000000000000000000000000000000000000000000000082169050919050565b6133708161333b565b811461337b57600080fd5b50565b60008135905061338d81613367565b92915050565b6000602082840312156133a9576133a8613331565b5b60006133b78482850161337e565b91505092915050565b60008115159050919050565b6133d5816133c0565b82525050565b60006020820190506133f060008301846133cc565b92915050565b600081519050919050565b600082825260208201905092915050565b60005b83811015613430578082015181840152602081019050613415565b8381111561343f576000848401525b50505050565b6000601f19601f8301169050919050565b6000613461826133f6565b61346b8185613401565b935061347b818560208601613412565b61348481613445565b840191505092915050565b600060208201905081810360008301526134a98184613456565b905092915050565b6000819050919050565b6134c4816134b1565b81146134cf57600080fd5b50565b6000813590506134e1816134bb565b92915050565b6000602082840312156134fd576134fc613331565b5b600061350b848285016134d2565b91505092915050565b600073ffffffffffffffffffffffffffffffffffffffff82169050919050565b600061353f82613514565b9050919050565b61354f81613534565b82525050565b600060208201905061356a6000830184613546565b92915050565b61357981613534565b811461358457600080fd5b50565b60008135905061359681613570565b92915050565b600080604083850312156135b3576135b2613331565b5b60006135c185828601613587565b92505060206135d2858286016134d2565b9150509250929050565b600081519050919050565b600082825260208201905092915050565b6000819050602082019050919050565b613611816134b1565b82525050565b600061362282613514565b9050919050565b61363281613617565b82525050565b613641816133c0565b82525050565b60a08201600082015161365d6000850182613608565b5060208201516136706020850182613629565b5060408201516136836040850182613629565b5060608201516136966060850182613608565b5060808201516136a96080850182613638565b50505050565b60006136bb8383613647565b60a08301905092915050565b6000602082019050919050565b60006136df826135dc565b6136e981856135e7565b93506136f4836135f8565b8060005b8381101561372557815161370c88826136af565b9750613717836136c7565b9250506001810190506136f8565b5085935050505092915050565b6000602082019050818103600083015261374c81846136d4565b905092915050565b61375d816134b1565b82525050565b60006020820190506137786000830184613754565b92915050565b60008060006060848603121561379757613796613331565b5b60006137a586828701613587565b93505060206137b686828701613587565b92505060406137c7868287016134d2565b9150509250925092565b6000602082840312156137e7576137e6613331565b5b60006137f584828501613587565b91505092915050565b600080fd5b600080fd5b7f4e487b7100000000000000000000000000000000000000000000000000000000600052604160045260246000fd5b61384082613445565b810181811067ffffffffffffffff8211171561385f5761385e613808565b5b80604052505050565b6000613872613327565b905061387e8282613837565b919050565b600067ffffffffffffffff82111561389e5761389d613808565b5b6138a782613445565b9050602081019050919050565b82818337600083830152505050565b60006138d66138d184613883565b613868565b9050828152602081018484840111156138f2576138f1613803565b5b6138fd8482856138b4565b509392505050565b600082601f83011261391a576139196137fe565b5b813561392a8482602086016138c3565b91505092915050565b6000806040838503121561394a57613949613331565b5b600083013567ffffffffffffffff81111561396857613967613336565b5b61397485828601613905565b9250506020613985858286016134d2565b9150509250929050565b600081519050919050565b600082825260208201905092915050565b6000819050602082019050919050565b600082825260208201905092915050565b60006139d7826133f6565b6139e181856139bb565b93506139f1818560208601613412565b6139fa81613445565b840191505092915050565b613a0e81613534565b82525050565b600060a0830160008301518482036000860152613a3182826139cc565b91505060208301518482036020860152613a4b82826139cc565b91505060408301518482036040860152613a6582826139cc565b9150506060830151613a7a6060860182613608565b506080830151613a8d6080860182613a05565b508091505092915050565b6000613aa48383613a14565b905092915050565b6000602082019050919050565b6000613ac48261398f565b613ace818561399a565b935083602082028501613ae0856139ab565b8060005b85811015613b1c5784840389528151613afd8582613a98565b9450613b0883613aac565b925060208a01995050600181019050613ae4565b50829750879550505050505092915050565b60006020820190508181036000830152613b488184613ab9565b905092915050565b613b5981613617565b82525050565b6000602082019050613b746000830184613b50565b92915050565b613b83816133c0565b8114613b8e57600080fd5b50565b600081359050613ba081613b7a565b92915050565b60008060408385031215613bbd57613bbc613331565b5b6000613bcb85828601613587565b9250506020613bdc85828601613b91565b9150509250929050565b600067ffffffffffffffff821115613c0157613c00613808565b5b613c0a82613445565b9050602081019050919050565b6000613c2a613c2584613be6565b613868565b905082815260208101848484011115613c4657613c45613803565b5b613c518482856138b4565b509392505050565b600082601f830112613c6e57613c6d6137fe565b5b8135613c7e848260208601613c17565b91505092915050565b60008060008060808587031215613ca157613ca0613331565b5b6000613caf87828801613587565b9450506020613cc087828801613587565b9350506040613cd1878288016134d2565b925050606085013567ffffffffffffffff811115613cf257613cf1613336565b5b613cfe87828801613c59565b91505092959194509250565b60008060408385031215613d2157613d20613331565b5b600083013567ffffffffffffffff811115613d3f57613d3e613336565b5b613d4b85828601613905565b925050602083013567ffffffffffffffff811115613d6c57613d6b613336565b5b613d7885828601613905565b9150509250929050565b60008060408385031215613d9957613d98613331565b5b6000613da7858286016134d2565b9250506020613db8858286016134d2565b9150509250929050565b600080600060608486031215613ddb57613dda613331565b5b600084013567ffffffffffffffff811115613df957613df8613336565b5b613e0586828701613905565b935050602084013567ffffffffffffffff811115613e2657613e25613336565b5b613e3286828701613905565b925050604084013567ffffffffffffffff811115613e5357613e52613336565b5b613e5f86828701613905565b9150509250925092565b60008060408385031215613e8057613e7f613331565b5b6000613e8e85828601613587565b9250506020613e9f85828601613587565b9150509250929050565b7f4e487b7100000000000000000000000000000000000000000000000000000000600052602260045260246000fd5b60006002820490506001821680613ef057607f821691505b60208210811415613f0457613f03613ea9565b5b50919050565b7f4552433732313a20617070726f76616c20746f2063757272656e74206f776e6560008201527f7200000000000000000000000000000000000000000000000000000000000000602082015250565b6000613f66602183613401565b9150613f7182613f0a565b604082019050919050565b60006020820190508181036000830152613f9581613f59565b9050919050565b7f4552433732313a20617070726f76652063616c6c6572206973206e6f7420746f60008201527f6b656e206f776e6572206f7220617070726f76656420666f7220616c6c000000602082015250565b6000613ff8603d83613401565b915061400382613f9c565b604082019050919050565b6000602082019050818103600083015261402781613feb565b9050919050565b7f4e487b7100000000000000000000000000000000000000000000000000000000600052601160045260246000fd5b6000614068826134b1565b9150614073836134b1565b9250828210156140865761408561402e565b5b828203905092915050565b600061409c826134b1565b91506140a7836134b1565b9250827fffffffffffffffffffffffffffffffffffffffffffffffffffffffffffffffff038211156140dc576140db61402e565b5b828201905092915050565b7f4e487b7100000000000000000000000000000000000000000000000000000000600052603260045260246000fd5b6000614121826134b1565b91507fffffffffffffffffffffffffffffffffffffffffffffffffffffffffffffffff8214156141545761415361402e565b5b600182019050919050565b7f4552433732313a2063616c6c6572206973206e6f7420746f6b656e206f776e6560008201527f72206f7220617070726f76656400000000000000000000000000000000000000602082015250565b60006141bb602d83613401565b91506141c68261415f565b604082019050919050565b600060208201905081810360008301526141ea816141ae565b9050919050565b7f4552433732313a20696e76616c696420746f6b656e2049440000000000000000600082015250565b6000614227601883613401565b9150614232826141f1565b602082019050919050565b600060208201905081810360008301526142568161421a565b9050919050565b7f4552433732313a2061646472657373207a65726f206973206e6f74206120766160008201527f6c6964206f776e65720000000000000000000000000000000000000000000000602082015250565b60006142b9602983613401565b91506142c48261425d565b604082019050919050565b600060208201905081810360008301526142e8816142ac565b9050919050565b600060608201905081810360008301526143098186613456565b90506143186020830185613754565b6143256040830184613754565b949350505050565b7f4f6e6c79206d61726b6574706c616365206f776e65722063616e20757064617460008201527f65206c697374696e672070726963652e00000000000000000000000000000000602082015250565b6000614389603083613401565b91506143948261432d565b604082019050919050565b600060208201905081810360008301526143b88161437c565b9050919050565b600060808201905081810360008301526143d98187613456565b905081810360208301526143ed8186613456565b90506143fc6040830185613754565b6144096060830184613546565b95945050505050565b7f506c65617365207375626d6974207468652061736b696e67207072696365206960008201527f6e206f7264657220746f20636f6d706c65746520746865207075726368617365602082015250565b600061446e604083613401565b915061447982614412565b604082019050919050565b6000602082019050818103600083015261449d81614461565b9050919050565b60006060820190506144b96000830186613546565b6144c66020830185613546565b6144d36040830184613754565b949350505050565b600081905092915050565b60006144f1826133f6565b6144fb81856144db565b935061450b818560208601613412565b80840191505092915050565b600061452382856144e6565b915061452f82846144e6565b91508190509392505050565b7f4f6e6c79206974656d206f776e65722063616e20706572666f726d207468697360008201527f206f7065726174696f6e00000000000000000000000000000000000000000000602082015250565b6000614597602a83613401565b91506145a28261453b565b604082019050919050565b600060208201905081810360008301526145c68161458a565b9050919050565b7f5072696365206d75737420626520657175616c20746f206c697374696e67207060008201527f7269636500000000000000000000000000000000000000000000000000000000602082015250565b6000614629602483613401565b9150614634826145cd565b604082019050919050565b600060208201905081810360008301526146588161461c565b9050919050565b7f506c656173652070617920736f6d657468696e6720677265617465722074686160008201527f6e20300000000000000000000000000000000000000000000000000000000000602082015250565b60006146bb602383613401565b91506146c68261465f565b604082019050919050565b600060208201905081810360008301526146ea816146ae565b9050919050565b6000608082019050818103600083015261470b8187613456565b9050818103602083015261471f8186613456565b905061472e6040830185613754565b61473b6060830184613754565b95945050505050565b7f4552433732313a207472616e736665722066726f6d20696e636f72726563742060008201527f6f776e6572000000000000000000000000000000000000000000000000000000602082015250565b60006147a0602583613401565b91506147ab82614744565b604082019050919050565b600060208201905081810360008301526147cf81614793565b9050919050565b7f4552433732313a207472616e7366657220746f20746865207a65726f2061646460008201527f7265737300000000000000000000000000000000000000000000000000000000602082015250565b6000614832602483613401565b915061483d826147d6565b604082019050919050565b6000602082019050818103600083015261486181614825565b9050919050565b7f4552433732313a206d696e7420746f20746865207a65726f2061646472657373600082015250565b600061489e602083613401565b91506148a982614868565b602082019050919050565b600060208201905081810360008301526148cd81614891565b9050919050565b7f4552433732313a20746f6b656e20616c7265616479206d696e74656400000000600082015250565b600061490a601c83613401565b9150614915826148d4565b602082019050919050565b60006020820190508181036000830152614939816148fd565b9050919050565b7f45524337323155524953746f726167653a2055524920736574206f66206e6f6e60008201527f6578697374656e7420746f6b656e000000000000000000000000000000000000602082015250565b600061499c602e83613401565b91506149a782614940565b604082019050919050565b600060208201905081810360008301526149cb8161498f565b9050919050565b7f5072696365206d757374206265206174206c6561737420312077656900000000600082015250565b6000614a08601c83613401565b9150614a13826149d2565b602082019050919050565b60006020820190508181036000830152614a37816149fb565b9050919050565b6000608082019050614a536000830187613546565b614a606020830186613546565b614a6d6040830185613754565b614a7a60608301846133cc565b95945050505050565b7f4552433732313a20617070726f766520746f2063616c6c657200000000000000600082015250565b6000614ab9601983613401565b9150614ac482614a83565b602082019050919050565b60006020820190508181036000830152614ae881614aac565b9050919050565b7f4552433732313a207472616e7366657220746f206e6f6e20455243373231526560008201527f63656976657220696d706c656d656e7465720000000000000000000000000000602082015250565b6000614b4b603283613401565b9150614b5682614aef565b604082019050919050565b60006020820190508181036000830152614b7a81614b3e565b9050919050565b7f436f756e7465723a2064656372656d656e74206f766572666c6f770000000000600082015250565b6000614bb7601b83613401565b9150614bc282614b81565b602082019050919050565b60006020820190508181036000830152614be681614baa565b9050919050565b600081519050919050565b600082825260208201905092915050565b6000614c1482614bed565b614c1e8185614bf8565b9350614c2e818560208601613412565b614c3781613445565b840191505092915050565b6000608082019050614c576000830187613546565b614c646020830186613546565b614c716040830185613754565b8181036060830152614c838184614c09565b905095945050505050565b600081519050614c9d81613367565b92915050565b600060208284031215614cb957614cb8613331565b5b6000614cc784828501614c8e565b91505092915050565b7f4e487b7100000000000000000000000000000000000000000000000000000000600052601260045260246000fdfea26469706673582212204860caac4a90727642dea0e9edb7d74da098fcaacfdb31fad1708bea5811faf764736f6c634300080a0033",
  "linkReferences": {},
  "deployedLinkReferences": {}
}